{
  "contractName": "JubsICO",
  "abi": [
    {
      "constant": true,
      "inputs": [],
      "name": "preIcoWallet",
      "outputs": [
        {
          "name": "",
          "type": "address"
        }
      ],
      "payable": false,
      "stateMutability": "view",
      "type": "function"
    },
    {
      "constant": true,
      "inputs": [],
      "name": "name",
      "outputs": [
        {
          "name": "",
          "type": "string"
        }
      ],
      "payable": false,
      "stateMutability": "view",
      "type": "function"
    },
    {
      "constant": false,
      "inputs": [
        {
          "name": "_spender",
          "type": "address"
        },
        {
          "name": "_value",
          "type": "uint256"
        }
      ],
      "name": "approve",
      "outputs": [
        {
          "name": "",
          "type": "bool"
        }
      ],
      "payable": false,
      "stateMutability": "nonpayable",
      "type": "function"
    },
    {
      "constant": true,
      "inputs": [],
      "name": "totalTokenToSale",
      "outputs": [
        {
          "name": "",
          "type": "uint256"
        }
      ],
      "payable": false,
      "stateMutability": "view",
      "type": "function"
    },
    {
      "constant": true,
      "inputs": [],
      "name": "totalSupply",
      "outputs": [
        {
          "name": "",
          "type": "uint256"
        }
      ],
      "payable": false,
      "stateMutability": "view",
      "type": "function"
    },
    {
      "constant": false,
      "inputs": [
        {
          "name": "recipient",
          "type": "address"
        },
        {
          "name": "amount",
          "type": "uint256"
        }
      ],
      "name": "manuallyAssignTokens",
      "outputs": [],
      "payable": false,
      "stateMutability": "nonpayable",
      "type": "function"
    },
    {
      "constant": true,
      "inputs": [
        {
          "name": "_from",
          "type": "address"
        },
        {
          "name": "_to",
          "type": "address"
        },
        {
          "name": "_value",
          "type": "uint256"
        }
      ],
      "name": "icoWallet",
      "outputs": [
        {
          "name": "",
          "type": "address"
        }
      ],
      "payable": false,
      "stateMutability": "view",
      "type": "function"
    },
    {
      "constant": false,
      "inputs": [
        {
          "name": "_from",
          "type": "address"
        },
        {
          "name": "_to",
          "type": "address"
        },
        {
          "name": "_value",
          "type": "uint256"
        }
      ],
      "name": "transferFrom",
      "outputs": [
        {
          "name": "",
          "type": "bool"
        }
      ],
      "payable": false,
      "stateMutability": "nonpayable",
      "type": "function"
    },
    {
      "constant": true,
      "inputs": [],
      "name": "icoEndTimestampStage3",
      "outputs": [
        {
          "name": "",
          "type": "uint256"
        }
      ],
      "payable": false,
      "stateMutability": "view",
      "type": "function"
    },
    {
      "constant": true,
      "inputs": [
        {
          "name": "_rate",
          "type": "uint256"
        }
      ],
      "name": "icoStartTimestampStage3",
      "outputs": [
        {
          "name": "",
          "type": "uint256"
        }
      ],
      "payable": false,
      "stateMutability": "view",
      "type": "function"
    },
    {
      "constant": true,
      "inputs": [],
      "name": "rate",
      "outputs": [
        {
          "name": "",
          "type": "uint256"
        }
      ],
      "payable": false,
      "stateMutability": "view",
      "type": "function"
    },
    {
      "constant": true,
      "inputs": [
        {
          "name": "_value",
          "type": "uint256"
        }
      ],
      "name": "decimals",
      "outputs": [
        {
          "name": "",
          "type": "uint256"
        }
      ],
      "payable": false,
      "stateMutability": "view",
      "type": "function"
    },
    {
      "constant": false,
      "inputs": [
        {
          "name": "_rate",
          "type": "uint256"
        }
      ],
      "name": "setRate",
      "outputs": [
        {
          "name": "",
          "type": "address"
        }
      ],
      "payable": false,
      "stateMutability": "nonpayable",
      "type": "function"
    },
    {
      "constant": false,
      "inputs": [
        {
          "name": "_icoStage",
          "type": "uint256"
        }
      ],
      "name": "setIcoStage",
      "outputs": [
        {
          "name": "",
          "type": "uint256"
        }
      ],
      "payable": false,
      "stateMutability": "nonpayable",
      "type": "function"
    },
    {
      "constant": false,
      "inputs": [],
      "name": "unpause",
      "outputs": [
        {
          "name": "",
          "type": "address"
        }
      ],
      "payable": false,
      "stateMutability": "nonpayable",
      "type": "function"
    },
    {
      "constant": false,
      "inputs": [
        {
          "name": "_value",
          "type": "uint256"
        }
      ],
      "name": "burn",
      "outputs": [
        {
          "name": "",
          "type": "address"
        }
      ],
      "payable": false,
      "stateMutability": "nonpayable",
      "type": "function"
    },
    {
      "constant": true,
      "inputs": [],
      "name": "icoStartTimestampStage2",
      "outputs": [
        {
          "name": "",
          "type": "uint256"
        }
      ],
      "payable": false,
      "stateMutability": "view",
      "type": "function"
    },
    {
      "constant": true,
      "inputs": [
        {
          "name": "_spender",
          "type": "address"
        },
        {
          "name": "_subtractedValue",
          "type": "uint256"
        }
      ],
      "name": "icoEndTimestampStage4",
      "outputs": [
        {
          "name": "",
          "type": "uint256"
        }
      ],
      "payable": false,
      "stateMutability": "view",
      "type": "function"
    },
    {
      "constant": true,
      "inputs": [
        {
          "name": "_owner",
          "type": "address"
        }
      ],
      "name": "tokensSold",
      "outputs": [
        {
          "name": "",
          "type": "uint256"
        }
      ],
      "payable": false,
      "stateMutability": "view",
      "type": "function"
    },
    {
      "constant": true,
      "inputs": [],
      "name": "teamWallet",
      "outputs": [
        {
          "name": "",
          "type": "address"
        }
      ],
      "payable": false,
      "stateMutability": "view",
      "type": "function"
    },
    {
      "constant": true,
      "inputs": [],
      "name": "rewardsWallet",
      "outputs": [
        {
          "name": "",
          "type": "address"
        }
      ],
      "payable": false,
      "stateMutability": "view",
      "type": "function"
    },
    {
      "constant": true,
      "inputs": [],
      "name": "paused",
      "outputs": [
        {
          "name": "",
          "type": "bool"
        }
      ],
      "payable": false,
      "stateMutability": "view",
      "type": "function"
    },
    {
      "constant": true,
      "inputs": [],
      "name": "icoStartTimestampStage4",
      "outputs": [
        {
          "name": "",
          "type": "uint256"
        }
      ],
      "payable": false,
      "stateMutability": "view",
      "type": "function"
    },
    {
      "constant": true,
      "inputs": [],
      "name": "icoEndTimestampStage2",
      "outputs": [
        {
          "name": "",
          "type": "uint256"
        }
      ],
      "payable": false,
      "stateMutability": "view",
      "type": "function"
    },
    {
      "constant": false,
      "inputs": [
        {
          "name": "_spender",
          "type": "address"
        },
        {
          "name": "_subtractedValue",
          "type": "uint256"
        }
      ],
      "name": "decreaseApproval",
      "outputs": [
        {
          "name": "success",
          "type": "bool"
        }
      ],
      "payable": false,
      "stateMutability": "nonpayable",
      "type": "function"
    },
    {
      "constant": true,
      "inputs": [],
      "name": "advisorsWallet",
      "outputs": [
        {
          "name": "",
          "type": "address"
        }
      ],
      "payable": false,
      "stateMutability": "view",
      "type": "function"
    },
    {
      "constant": true,
      "inputs": [
        {
          "name": "_owner",
          "type": "address"
        },
        {
          "name": "_value",
          "type": "uint256"
        }
      ],
      "name": "balanceOf",
      "outputs": [
        {
          "name": "balance",
          "type": "uint256"
        }
      ],
      "payable": false,
      "stateMutability": "view",
      "type": "function"
    },
    {
      "constant": true,
      "inputs": [],
      "name": "arbitrationWallet",
      "outputs": [
        {
          "name": "",
          "type": "address"
        }
      ],
      "payable": false,
      "stateMutability": "view",
      "type": "function"
    },
    {
      "constant": true,
      "inputs": [],
      "name": "pauseEmergence",
      "outputs": [
        {
          "name": "",
          "type": "bool"
        }
      ],
      "payable": false,
      "stateMutability": "view",
      "type": "function"
    },
    {
      "constant": false,
      "inputs": [],
      "name": "pause",
      "outputs": [
        {
          "name": "",
          "type": "uint256"
        }
      ],
      "payable": false,
      "stateMutability": "nonpayable",
      "type": "function"
    },
    {
      "constant": true,
      "inputs": [],
      "name": "owner",
      "outputs": [
        {
          "name": "",
          "type": "address"
        }
      ],
      "payable": false,
      "stateMutability": "view",
      "type": "function"
    },
    {
      "constant": true,
      "inputs": [],
      "name": "symbol",
      "outputs": [
        {
          "name": "",
          "type": "string"
        }
      ],
      "payable": false,
      "stateMutability": "view",
      "type": "function"
    },
    {
      "constant": true,
      "inputs": [],
      "name": "walletETH",
      "outputs": [
        {
          "name": "",
          "type": "address"
        }
      ],
      "payable": false,
      "stateMutability": "view",
      "type": "function"
    },
    {
      "constant": true,
      "inputs": [
        {
          "name": "_spender",
          "type": "address"
        },
        {
          "name": "_addedValue",
          "type": "uint256"
        }
      ],
      "name": "icoStartTimestampStage1",
      "outputs": [
        {
          "name": "",
          "type": "uint256"
        }
      ],
      "payable": false,
      "stateMutability": "view",
      "type": "function"
    },
    {
      "constant": false,
      "inputs": [
        {
          "name": "_to",
          "type": "address"
        },
        {
          "name": "_value",
          "type": "uint256"
        }
      ],
      "name": "transfer",
      "outputs": [
        {
          "name": "",
          "type": "bool"
        }
      ],
      "payable": false,
      "stateMutability": "nonpayable",
      "type": "function"
    },
    {
      "constant": true,
      "inputs": [
        {
          "name": "_to",
          "type": "address"
        },
        {
          "name": "_value",
          "type": "uint256"
        }
      ],
      "name": "bountyMktWallet",
      "outputs": [
        {
          "name": "",
          "type": "address"
        }
      ],
      "payable": false,
      "stateMutability": "view",
      "type": "function"
    },
    {
      "constant": true,
      "inputs": [
        {
          "name": "newOwner",
          "type": "address"
        }
      ],
      "name": "teamEndTimestamp",
      "outputs": [
        {
          "name": "",
          "type": "uint256"
        }
      ],
      "payable": false,
      "stateMutability": "view",
      "type": "function"
    },
    {
      "inputs": [
        {
          "name": "_wallet",
          "type": "address"
        },
        {
          "name": "_investorsWallet",
          "type": "address"
        },
        {
          "name": "_workingCapitalWallet",
          "type": "address"
        },
        {
          "name": "_walletToken",
          "type": "address"
        },
        {
          "name": "_teamWallet",
          "type": "address"
        },
        {
          "name": "_rewardWallet",
          "type": "address"
        },
        {
          "name": "_advisior",
          "type": "address"
        },
        {
          "name": "_icoEtherMinCap",
          "type": "uint256"
        },
        {
          "name": "_icoEtherMaxCap",
          "type": "uint256"
        }
      ],
      "payable": false,
      "stateMutability": "view",
      "type": "function",
      "constant": true,
      "name": "icoEndTimestampStage",
      "outputs": [
        {
          "name": "",
          "type": "uint256"
        }
      ]
    },
    {
      "payable": false,
      "stateMutability": "nonpayable",
      "type": "function",
      "inputs": [
        {
          "name": "_wallet",
          "type": "address"
        },
        {
          "name": "_investorsWallet",
          "type": "address"
        },
        {
          "name": "_workingCapitalWallet",
          "type": "address"
        },
        {
          "name": "_walletToken",
          "type": "address"
        },
        {
          "name": "_teamWallet",
          "type": "address"
        },
        {
          "name": "_rewardWallet",
          "type": "address"
        },
        {
          "name": "_advisior",
          "type": "address"
        },
        {
          "name": "_icoEtherMinCap",
          "type": "uint256"
        },
        {
          "name": "_icoEtherMaxCap",
          "type": "uint256"
        }
      ],
      "constant": false,
      "name": "setPauseEmergence",
      "outputs": [
        {
          "name": "",
          "type": "uint256"
        }
      ]
    },
    {
      "anonymous": false,
      "inputs": [
        {
          "indexed": true,
          "name": "burner",
          "type": "address"
        },
        {
          "indexed": false,
          "name": "value",
          "type": "uint256"
        }
      ],
      "name": "totalRaised",
      "type": "function",
      "payable": false,
      "stateMutability": "view",
      "constant": true,
      "outputs": [
        {
          "name": "",
          "type": "uint256"
        }
      ]
    },
    {
      "anonymous": false,
      "inputs": [
        {
          "indexed": true,
          "name": "burner",
          "type": "address"
        },
        {
          "indexed": false,
          "name": "value",
          "type": "uint256"
        }
      ],
      "name": "icoEndTimestampStage1",
      "type": "function",
      "constant": true,
      "outputs": [
        {
          "name": "",
          "type": "uint256"
        }
      ],
      "payable": false,
      "stateMutability": "view"
    },
    {
      "anonymous": false,
      "inputs": [
        {
          "name": "_spender",
          "type": "address"
        },
        {
          "name": "_addedValue",
          "type": "uint256"
        }
      ],
      "name": "increaseApproval",
      "type": "function",
      "constant": false,
      "outputs": [
        {
          "name": "success",
          "type": "bool"
        }
      ],
      "payable": false,
      "stateMutability": "nonpayable"
    },
    {
      "anonymous": false,
      "inputs": [
        {
          "indexed": true,
          "name": "_spender",
          "type": "address"
        },
        {
          "indexed": true,
          "name": "_addedValue",
          "type": "uint256"
        }
      ],
      "name": "setUnPauseEmergence",
      "type": "function",
      "constant": false,
      "outputs": [
        {
          "name": "success",
          "type": "bool"
        }
      ],
      "payable": false,
      "stateMutability": "nonpayable"
    },
    {
      "anonymous": false,
      "inputs": [
        {
          "indexed": true,
          "name": "_owner",
          "type": "address"
        },
        {
          "indexed": true,
          "name": "_spender",
          "type": "address"
        },
        {
          "indexed": false,
          "name": "value",
          "type": "uint256"
        }
      ],
      "name": "allowance",
      "type": "function",
      "constant": true,
      "outputs": [
        {
          "name": "remaining",
          "type": "uint256"
        }
      ],
      "payable": false,
      "stateMutability": "view"
    },
    {
      "anonymous": false,
      "inputs": [
        {
          "indexed": true,
          "name": "_owner",
          "type": "address"
        },
        {
          "indexed": true,
          "name": "_spender",
          "type": "address"
        },
        {
          "indexed": false,
          "name": "value",
          "type": "uint256"
        }
      ],
      "name": "icoStartTimestampStage",
      "type": "function",
      "constant": true,
      "outputs": [
        {
          "name": "",
          "type": "uint256"
        }
      ],
      "payable": false,
      "stateMutability": "view"
    },
    {
      "anonymous": false,
      "inputs": [
        {
          "indexed": true,
          "name": "from",
          "type": "address"
        },
        {
          "indexed": true,
          "name": "to",
          "type": "address"
        },
        {
          "indexed": false,
          "name": "value",
          "type": "uint256"
        }
      ],
      "name": "operationWallet",
      "type": "function",
      "constant": true,
      "outputs": [
        {
          "name": "",
          "type": "address"
        }
      ],
      "payable": false,
      "stateMutability": "view"
    },
    {
      "constant": false,
      "inputs": [
        {
          "name": "_to",
          "type": "address"
        },
        {
          "name": "amount",
          "type": "uint256"
        }
      ],
      "name": "sendTokenTeam",
      "outputs": [
        {
          "name": "",
          "type": "address"
        }
      ],
      "payable": false,
      "stateMutability": "nonpayable",
      "type": "function"
    },
    {
      "constant": false,
      "inputs": [
        {
          "name": "newOwner",
          "type": "address"
        },
        {
          "name": "amount",
          "type": "uint256"
        }
      ],
      "name": "transferOwnership",
      "outputs": [
        {
          "name": "sendTokenTeam",
          "type": "bool"
        }
      ],
      "payable": false,
      "stateMutability": "nonpayable",
      "type": "function"
    },
    {
      "constant": true,
      "inputs": [
        {
          "name": "newOwner",
          "type": "address"
        }
      ],
      "name": "icoStage",
      "outputs": [
        {
          "name": "",
          "type": "uint256"
        }
      ],
      "payable": false,
      "stateMutability": "view",
      "type": "function"
    },
    {
      "constant": true,
      "inputs": [
        {
          "name": "_walletETH",
          "type": "address"
        },
        {
          "name": "_icoWallet",
          "type": "address"
        },
        {
          "name": "_preIcoWallet",
          "type": "address"
        },
        {
          "name": "_teamWallet",
          "type": "address"
        },
        {
          "name": "_bountyMktWallet",
          "type": "address"
        },
        {
          "name": "_arbitrationWallet",
          "type": "address"
        },
        {
          "name": "_rewardsWallet",
          "type": "address"
        },
        {
          "name": "_advisorsWallet",
          "type": "address"
        },
        {
          "name": "_operationWallet",
          "type": "address"
        }
      ],
      "name": "icoStage",
      "outputs": [
        {
          "name": "",
          "type": "uint256"
        }
      ],
      "payable": false,
      "stateMutability": "nonpayable",
      "type": "constructor"
    },
    {
      "inputs": [
        {
          "name": "_walletETH",
          "type": "address"
        },
        {
          "name": "_icoWallet",
          "type": "address"
        },
        {
          "name": "_preIcoWallet",
          "type": "address"
        },
        {
          "name": "_teamWallet",
          "type": "address"
        },
        {
          "name": "_bountyMktWallet",
          "type": "address"
        },
        {
          "name": "_arbitrationWallet",
          "type": "address"
        },
        {
          "name": "_rewardsWallet",
          "type": "address"
        },
        {
          "name": "_advisorsWallet",
          "type": "address"
        },
        {
          "name": "_operationWallet",
          "type": "address"
        }
      ],
      "payable": true,
      "stateMutability": "payable",
      "type": "fallback"
    },
    {
      "anonymous": false,
      "inputs": [
        {
          "indexed": true,
          "name": "burner",
          "type": "address"
        },
        {
          "indexed": false,
          "name": "value",
          "type": "uint256"
        }
      ],
      "name": "Burn",
      "type": "event"
    },
    {
      "anonymous": false,
      "inputs": [],
      "name": "Pause",
      "type": "event"
    },
    {
      "anonymous": false,
      "inputs": [],
      "name": "Unpause",
      "type": "event"
    },
    {
      "anonymous": false,
      "inputs": [
        {
          "indexed": true,
          "name": "previousOwner",
          "type": "address"
        },
        {
          "indexed": true,
          "name": "newOwner",
          "type": "address"
        }
      ],
      "name": "OwnershipTransferred",
      "type": "event"
    },
    {
      "anonymous": false,
      "inputs": [
        {
          "indexed": true,
          "name": "owner",
          "type": "address"
        },
        {
          "indexed": true,
          "name": "spender",
          "type": "address"
        },
        {
          "indexed": false,
          "name": "value",
          "type": "uint256"
        }
      ],
      "name": "Approval",
      "type": "event"
    },
    {
      "anonymous": false,
      "inputs": [
        {
          "indexed": true,
          "name": "from",
          "type": "address"
        },
        {
          "indexed": true,
          "name": "to",
          "type": "address"
        },
        {
          "indexed": false,
          "name": "value",
          "type": "uint256"
        }
      ],
      "name": "Transfer",
      "type": "event"
    }
  ],
  "bytecode": "0x606060409081526002805460a060020a60ff02191690558051908101604052600581527f486f6e6f72000000000000000000000000000000000000000000000000000000602082015260049080516200005d92916020019062000662565b5060408051908101604052600381527f484e52000000000000000000000000000000000000000000000000000000000060208201526005908051620000a792916020019062000662565b50601260068190556825f273933db570000060075560006011819055908190556013819055601455610dac6015556016805460ff19169055635a5bef00601755635a88c1ff601855635a8a1380601955635a934dff601a55635a934e00601b55635a9c887f601c55635a9c8880601d55635aa5c2ff601e55635aa5c300601f55635aaefd7f602055635e1e560060215534156200014357600080fd5b6040516101208062001bb083398101604052808051919060200180519190602001805191906020018051919060200180519190602001805191906020018051919060200180519190602001805160028054600160a060020a03191633600160a060020a03908116919091179091559092508a1615159050620001c457600080fd5b600160a060020a0388161515620001da57600080fd5b600160a060020a0387161515620001f057600080fd5b600160a060020a03861615156200020657600080fd5b600160a060020a03851615156200021c57600080fd5b600160a060020a03841615156200023257600080fd5b600160a060020a03831615156200024857600080fd5b600160a060020a03821615156200025e57600080fd5b60098054600160a060020a0319908116600160a060020a038b8116919091179092556008805482168c8416179055600a805482168a8416179055600b80548216898416179055600c80548216888416179055600d80548216878416179055600e80548216868416179055600f80548216858416179055601080549091169183169190911790556007546200031f906064906200030a90603f6401000000006200057281026200087a1704565b9064010000000062001456620005a082021704565b600954600160a060020a0316600090815260016020526040902055600780546200035f916064916200030a916401000000006200087a6200057282021704565b600a8054600160a060020a0316600090815260016020526040902091909155600754620003a2916064916200030a916401000000006200087a6200057282021704565b600b54600160a060020a031660009081526001602052604090205560078054620003e2916064916200030a916401000000006200087a6200057282021704565b600c54600160a060020a031660009081526001602052604090205560075462000423906064906200030a9060056401000000006200087a6200057282021704565b600d54600160a060020a031660009081526001602052604090205560075462000464906064906200030a9060056401000000006200087a6200057282021704565b600e54600160a060020a0316600090815260016020526040902055600754620004a5906064906200030a9060026401000000006200087a6200057282021704565b600f54600160a060020a0316600090815260016020819052604090912091909155600754620004ea916064916200030a916401000000006200087a6200057282021704565b601054600160a060020a03166000908152600160205260409020556200051d64010000000062000fec620005b882021704565b600a54600160a060020a039081166000908152600160205260408082205460095490931682529020546200055f91640100000000620009816200065282021704565b6014555062000707975050505050505050565b60008282028315806200059057508284828115156200058d57fe5b04145b15156200059957fe5b9392505050565b6000808284811515620005af57fe5b04949350505050565b60025433600160a060020a03908116911614620005d457600080fd5b60025474010000000000000000000000000000000000000000900460ff1615620005fd57600080fd5b6002805460a060020a60ff021916740100000000000000000000000000000000000000001790557f6985a02210a168e66602d3235cb6db0e70f92b3ba4d376a33c0f3d9434bff62560405160405180910390a1565b6000828201838110156200059957fe5b828054600181600116156101000203166002900490600052602060002090601f016020900481019282601f10620006a557805160ff1916838001178555620006d5565b82800160010185558215620006d5579182015b82811115620006d5578251825591602001919060010190620006b8565b50620006e3929150620006e7565b5090565b6200070491905b80821115620006e35760008155600101620006ee565b90565b61149980620007176000396000f3006060604052361561024e5763ffffffff7c010000000000000000000000000000000000000000000000000000000060003504166306780cf5811461037a57806306fdde03146103a9578063095ea7b3146104335780631067f3611461046957806318160ddd1461048e5780631d1ada90146104a157806322287914146104c557806323b872dd146104d85780632ab76377146105005780632c0f13a7146105135780632c4e722e14610526578063313ce5671461053957806334fcf4371461054c5780633beb4db1146105625780633f4ba83a1461057857806342966c681461058b57806342992dd5146105a15780634f162f8f146105b4578063518ab2a8146105c757806359927044146105da5780635b35f9c9146105ed5780635c975abb146106005780635ddb25851461061357806362fec51b1461062657806366188463146106395780636b252b471461065b57806370a082311461066e5780637704533d1461068d57806379162aeb146106a05780638456cb59146106b35780638da5cb5b146106c657806395d89b41146106d95780639d0c1e6f146106ec578063a1664ae2146106ff578063a9059cbb14610712578063aa72f21714610734578063ac00c3e614610747578063af8d5a481461075a578063c58684ab1461076d578063c5c4744c14610780578063cc34a24714610793578063d73dd623146107a6578063d7eae6db146107c8578063dd62ed3e146107db578063dee1cfd814610800578063e042ad5814610813578063f2b175c014610826578063f2fde38b14610848578063fc00234e14610867575b60165460009060ff161561026157600080fd5b6000341161026e57600080fd5b60115415156102955760175442101561028657600080fd5b60185442111561029557600080fd5b601154600114156102be576019544210156102af57600080fd5b601a544211156102be57600080fd5b601154600214156102e757601b544210156102d857600080fd5b601c544211156102e757600080fd5b6011546003141561031057601d5442101561030157600080fd5b601e5442111561031057600080fd5b6011546004141561033957601f5442101561032a57600080fd5b60205442111561033957600080fd5b60155461034d90349063ffffffff61087a16565b905061035933826108a5565b60135461036c903463ffffffff61098116565b601355610377610990565b50005b341561038557600080fd5b61038d6109c6565b604051600160a060020a03909116815260200160405180910390f35b34156103b457600080fd5b6103bc6109d5565b60405160208082528190810183818151815260200191508051906020019080838360005b838110156103f85780820151838201526020016103e0565b50505050905090810190601f1680156104255780820380516001836020036101000a031916815260200191505b509250505060405180910390f35b341561043e57600080fd5b610455600160a060020a0360043516602435610a73565b604051901515815260200160405180910390f35b341561047457600080fd5b61047c610af6565b60405190815260200160405180910390f35b341561049957600080fd5b61047c610afc565b34156104ac57600080fd5b6104c3600160a060020a0360043516602435610b02565b005b34156104d057600080fd5b61038d610b3b565b34156104e357600080fd5b610455600160a060020a0360043581169060243516604435610b4a565b341561050b57600080fd5b61047c610c8d565b341561051e57600080fd5b61047c610c93565b341561053157600080fd5b61047c610c99565b341561054457600080fd5b61047c610c9f565b341561055757600080fd5b6104c3600435610ca5565b341561056d57600080fd5b6104c3600435610cd2565b341561058357600080fd5b6104c3610d0e565b341561059657600080fd5b6104c3600435610d8d565b34156105ac57600080fd5b61047c610e49565b34156105bf57600080fd5b61047c610e4f565b34156105d257600080fd5b61047c610e55565b34156105e557600080fd5b61038d610e5b565b34156105f857600080fd5b61038d610e6a565b341561060b57600080fd5b610455610e79565b341561061e57600080fd5b61047c610e89565b341561063157600080fd5b61047c610e8f565b341561064457600080fd5b610455600160a060020a0360043516602435610e95565b341561066657600080fd5b61038d610faa565b341561067957600080fd5b61047c600160a060020a0360043516610fb9565b341561069857600080fd5b61038d610fd4565b34156106ab57600080fd5b610455610fe3565b34156106be57600080fd5b6104c3610fec565b34156106d157600080fd5b61038d611070565b34156106e457600080fd5b6103bc61107f565b34156106f757600080fd5b61038d6110ea565b341561070a57600080fd5b61047c6110f9565b341561071d57600080fd5b610455600160a060020a03600435166024356110ff565b341561073f57600080fd5b61038d6111d5565b341561075257600080fd5b61047c6111e4565b341561076557600080fd5b61047c6111ea565b341561077857600080fd5b6104c36111f0565b341561078b57600080fd5b61047c61121a565b341561079e57600080fd5b61047c611220565b34156107b157600080fd5b610455600160a060020a0360043516602435611226565b34156107d357600080fd5b6104c36112e2565b34156107e657600080fd5b61047c600160a060020a0360043581169060243516611309565b341561080b57600080fd5b61047c61134f565b341561081e57600080fd5b61038d611355565b341561083157600080fd5b6104c3600160a060020a0360043516602435611364565b341561085357600080fd5b6104c3600160a060020a03600435166113a3565b341561087257600080fd5b61047c61143e565b6000828202831580610896575082848281151561089357fe5b04145b151561089e57fe5b9392505050565b600160a060020a0382166000908152600160205260408120546108ce908363ffffffff61098116565b600160a060020a0384166000908152600160205260409020556012546108fa908363ffffffff61098116565b601281905560145490111561093d5760125460145461091e9163ffffffff61144416565b6012546014819055909150610939908263ffffffff61098116565b6007555b82600160a060020a031660007fddf252ad1be2c89b69c2b068fc378daa952ba7f163c4a11628f55a4df523b3ef8460405190815260200160405180910390a3505050565b60008282018381101561089e57fe5b600854600160a060020a03163480156108fc0290604051600060405180830381858888f1935050505015156109c457600080fd5b565b600a54600160a060020a031681565b60048054600181600116156101000203166002900480601f016020809104026020016040519081016040528092919081815260200182805460018160011615610100020316600290048015610a6b5780601f10610a4057610100808354040283529160200191610a6b565b820191906000526020600020905b815481529060010190602001808311610a4e57829003601f168201915b505050505081565b60025460009060a060020a900460ff1615610a8d57600080fd5b600160a060020a03338116600081815260036020908152604080832094881680845294909152908190208590557f8c5be1e5ebec7d5bd14f71427d1e84f3dd0314c0f7b2291e5b200ac8c7c3b9259085905190815260200160405180910390a350600192915050565b60145481565b60075481565b60025433600160a060020a03908116911614610b1d57600080fd5b60075460125410610b2d57600080fd5b610b3782826108a5565b5050565b600954600160a060020a031681565b600254600090819060a060020a900460ff1615610b6657600080fd5b600160a060020a0384161515610b7b57600080fd5b50600160a060020a03808516600081815260036020908152604080832033909516835293815283822054928252600190529190912054610bc1908463ffffffff61144416565b600160a060020a038087166000908152600160205260408082209390935590861681522054610bf6908463ffffffff61098116565b600160a060020a038516600090815260016020526040902055610c1f818463ffffffff61144416565b600160a060020a03808716600081815260036020908152604080832033861684529091529081902093909355908616917fddf252ad1be2c89b69c2b068fc378daa952ba7f163c4a11628f55a4df523b3ef9086905190815260200160405180910390a3506001949350505050565b601e5481565b601d5481565b60155481565b60065481565b60025433600160a060020a03908116911614610cc057600080fd5b60008110610ccd57600080fd5b601555565b60025433600160a060020a03908116911614610ced57600080fd5b6000811115610cfb57600080fd5b6004811015610d0957600080fd5b601155565b60025433600160a060020a03908116911614610d2957600080fd5b60025460a060020a900460ff161515610d4157600080fd5b6002805474ff0000000000000000000000000000000000000000191690557f7805862f689e2f13df9f062ff482ad3ad112aca9e0847911ed832e158c525b3360405160405180910390a1565b60025460009060a060020a900460ff1615610da757600080fd5b60008211610db457600080fd5b5033600160a060020a038116600090815260016020526040902054610dd99083611444565b600160a060020a038216600090815260016020526040902055600754610e05908363ffffffff61144416565b600755600160a060020a0381167fcc16f5dbb4873280815c1ee09dbd06736cffcc184412cf7a71a0fdb75d397ca58360405190815260200160405180910390a25050565b601b5481565b60205481565b60125481565b600b54600160a060020a031681565b600e54600160a060020a031681565b60025460a060020a900460ff1681565b601f5481565b601c5481565b600254600090819060a060020a900460ff1615610eb157600080fd5b50600160a060020a0333811660009081526003602090815260408083209387168352929052205480831115610f0d57600160a060020a033381166000908152600360209081526040808320938816835292905290812055610f44565b610f1d818463ffffffff61144416565b600160a060020a033381166000908152600360209081526040808320938916835292905220555b600160a060020a0333811660008181526003602090815260408083209489168084529490915290819020547f8c5be1e5ebec7d5bd14f71427d1e84f3dd0314c0f7b2291e5b200ac8c7c3b925915190815260200160405180910390a35060019392505050565b600f54600160a060020a031681565b600160a060020a031660009081526001602052604090205490565b600d54600160a060020a031681565b60165460ff1681565b60025433600160a060020a0390811691161461100757600080fd5b60025460a060020a900460ff161561101e57600080fd5b6002805474ff0000000000000000000000000000000000000000191660a060020a1790557f6985a02210a168e66602d3235cb6db0e70f92b3ba4d376a33c0f3d9434bff62560405160405180910390a1565b600254600160a060020a031681565b60058054600181600116156101000203166002900480601f016020809104026020016040519081016040528092919081815260200182805460018160011615610100020316600290048015610a6b5780601f10610a4057610100808354040283529160200191610a6b565b600854600160a060020a031681565b60195481565b6000600160a060020a038316151561111657600080fd5b600160a060020a03331660009081526001602052604090205461113f908363ffffffff61144416565b600160a060020a033381166000908152600160205260408082209390935590851681522054611174908363ffffffff61098116565b600160a060020a0380851660008181526001602052604090819020939093559133909116907fddf252ad1be2c89b69c2b068fc378daa952ba7f163c4a11628f55a4df523b3ef9085905190815260200160405180910390a350600192915050565b600c54600160a060020a031681565b60215481565b60185481565b60025433600160a060020a0390811691161461120b57600080fd5b6016805460ff19166001179055565b60135481565b601a5481565b60025460009060a060020a900460ff161561124057600080fd5b600160a060020a03338116600090815260036020908152604080832093871683529290522054611276908363ffffffff61098116565b600160a060020a0333811660008181526003602090815260408083209489168084529490915290819020849055919290917f8c5be1e5ebec7d5bd14f71427d1e84f3dd0314c0f7b2291e5b200ac8c7c3b92591905190815260200160405180910390a350600192915050565b60025433600160a060020a039081169116146112fd57600080fd5b6016805460ff19169055565b60025460009060a060020a900460ff161561132357600080fd5b50600160a060020a03918216600090815260036020908152604080832093909416825291909152205490565b60175481565b601054600160a060020a031681565b60025433600160a060020a0390811691161461137f57600080fd5b600160a060020a038216151561139457600080fd5b602154421015610b2d57600080fd5b60025433600160a060020a039081169116146113be57600080fd5b600160a060020a03811615156113d357600080fd5b600254600160a060020a0380831691167f8be0079c531659141344cd1fd0a4f28419497f9722a3daafe3b4186f6b6457e060405160405180910390a36002805473ffffffffffffffffffffffffffffffffffffffff1916600160a060020a0392909216919091179055565b60115481565b60008282111561145057fe5b50900390565b600080828481151561146457fe5b049493505050505600a165627a7a723058208a30987c682d9db0f7689b64057ed7c8987be44915fe7a49d035b99770285b660029",
  "source": "pragma solidity ^0.4.15;\n\nimport './ERC20Basic.sol';\nimport './StandardToken.sol';\n\ncontract JubsICO is StandardToken {\n    using SafeMath for uint256;\n\n    //Information coin\n    string public name = \"Honor\";\n    string public symbol = \"HNR\";\n    uint256 public decimals = 18;\n    uint256 public totalSupply = 10 * (10*7) * (10 ** decimals); //100 000 000 HNR\n\n    //Adress informated in white paper \n    address public walletETH;                           //Wallet ETH\n    address public icoWallet;                           //63%\n    address public preIcoWallet;                        //7%\n    address public teamWallet;                          //10%\n    address public bountyMktWallet;                     //7%\n    address public arbitrationWallet;                   //5%\n    address public rewardsWallet;                       //5%\n    address public advisorsWallet;                      //2%\n    address public operationWallet;                     //1%       \n\n    //Utils ICO   \n    uint256 public icoStage = 0;        \n    uint256 public tokensSold = 0;                      // total number of tokens sold\n    uint256 public totalRaised = 0;                     // total amount of money raised in wei\n    uint256 public totalTokenToSale = 0;\n    uint256 public rate = 3500;                         // HNR/ETH rate / initial 50%\n    bool public pauseEmergence = false;                 //the owner address can set this to true to halt the crowdsale due to emergency\n    \n\n    //Time Start and Time end\n    //Stage pre sale                                            //50%\n    uint256 public icoStartTimestampStage = 1515974400;         //15/01/2018 @ 00:00am (UTC)\n    uint256 public icoEndTimestampStage = 1518911999;           //18/02/2018 @ 11:59pm (UTC)\n\n    //Stage 1                                                   //25%\n    uint256 public icoStartTimestampStage1 = 1518998400;        //19/02/2018 @ 00:00am (UTC)\n    uint256 public icoEndTimestampStage1 = 1519603199;          //25/02/2018 @ 11:59pm (UTC)\n\n    //Stage 2                                                   //20%\n    uint256 public icoStartTimestampStage2 = 1519603200;        //26/02/2018 @ 00:00am (UTC)\n    uint256 public icoEndTimestampStage2 = 1520207999;          //04/03/2018 @ 11:59pm (UTC)\n\n    //Stage 3                                                   //15%\n    uint256 public icoStartTimestampStage3 = 1520208000;        //05/03/2018 @ 00:00am (UTC)\n    uint256 public icoEndTimestampStage3 = 1520812799;          //11/03/2018 @ 11:59pm (UTC)\n\n    //Stage 4                                                   //10%\n    uint256 public icoStartTimestampStage4 = 1520812800;        //12/02/2018 @ 00:00am (UTC)\n    uint256 public icoEndTimestampStage4 = 1521417599;          //18/02/2018 @ 11:59pm (UTC)\n\n    //end of the waiting time for the team to withdraw \n    uint256 public teamEndTimestamp = 1579046400;               //01/15/2020 @ 12:00am (UTC) \n                                                                \n\n// =================================== Events ================================================\n\n    event Burn(address indexed burner, uint256 value);  \n\n\n// =================================== Constructor =============================================\n       \n    function JubsICO (\n        address  _walletETH,\n        address  _icoWallet,\n        address  _preIcoWallet,\n        address  _teamWallet,\n        address  _bountyMktWallet,\n        address  _arbitrationWallet,\n        address  _rewardsWallet,\n        address  _advisorsWallet,\n        address  _operationWallet\n        )\n        public \n        {\n            require(_walletETH != 0x0);\n            require(_icoWallet != 0x0);\n            require(_preIcoWallet != 0x0);\n            require(_teamWallet != 0x0);\n            require(_bountyMktWallet != 0x0);\n            require(_arbitrationWallet != 0x0);\n            require(_rewardsWallet != 0x0);\n            require(_advisorsWallet != 0x0);            \n            \n            //set wallet that will receive ether\n            icoWallet = _icoWallet;\n\n            //set wallet\n            walletETH = _walletETH;\n            preIcoWallet = _preIcoWallet;\n            teamWallet = _teamWallet;\n            bountyMktWallet = _bountyMktWallet;\n            arbitrationWallet = _arbitrationWallet;\n            rewardsWallet = _rewardsWallet;\n            advisorsWallet = _advisorsWallet;\n            operationWallet = _operationWallet;\n\n            //Distribution Token  \n            balances[icoWallet] = totalSupply.mul(63).div(100);                 //totalSupply * 63%\n            balances[preIcoWallet] = totalSupply.mul(7).div(100);               //totalSupply * 7%\n            balances[teamWallet] = totalSupply.mul(10).div(100);                //totalSupply * 10%\n            balances[bountyMktWallet] = totalSupply.mul(7).div(100);            //totalSupply * 7%\n            balances[arbitrationWallet] = totalSupply.mul(5).div(100);          //totalSupply * 5%\n            balances[rewardsWallet] = totalSupply.mul(5).div(100);              //totalSupply * 5%\n            balances[advisorsWallet] = totalSupply.mul(2).div(100);             //totalSupply * 2%\n            balances[operationWallet] = totalSupply.mul(1).div(100);            //totalSupply * 1%      \n\n            //set pause\n            pause();\n\n            //set token to sale\n            totalTokenToSale = balances[icoWallet].add(balances[preIcoWallet]);           \n    }\n\n // ======================================== Modifier ==================================================\n\n    modifier acceptsFunds() {   \n        if (icoStage == 0) {\n            require(now >= icoStartTimestampStage);          \n            require(now <= icoEndTimestampStage); \n        }\n\n        if (icoStage == 1) {\n            require(now >= icoStartTimestampStage1);          \n            require(now <= icoEndTimestampStage1);            \n        }\n\n        if (icoStage == 2) {\n            require(now >= icoStartTimestampStage2);          \n            require(now <= icoEndTimestampStage2);            \n        }\n\n        if (icoStage == 3) {\n            require(now >= icoStartTimestampStage3);          \n            require(now <= icoEndTimestampStage3);            \n        }\n\n        if (icoStage == 4) {\n            require(now >= icoStartTimestampStage4);          \n            require(now <= icoEndTimestampStage4);            \n        }             \n               \n        _;\n    }    \n\n    modifier nonZeroBuy() {\n        require(msg.value > 0);\n        _;\n\n    }\n\n    modifier PauseEmergence {\n        require(!pauseEmergence);\n        _;\n    }\n\n\n//========================================== Functions ===========================================================================\n\n    /// fallback function to buy tokens\n    function () PauseEmergence nonZeroBuy acceptsFunds payable public {  \n        uint256 amount = msg.value.mul(rate);\n\n        assignTokens(msg.sender, amount);\n        totalRaised = totalRaised.add(msg.value);\n\n        forwardFundsToWallet();\n    } \n\n    function forwardFundsToWallet() internal {        \n        walletETH.transfer(msg.value);              // immediately send Ether to wallet address, propagates exception if execution fails\n    }\n\n    function assignTokens(address recipient, uint256 amount) internal {        \n        balances[recipient] = balances[recipient].add(amount);\n        tokensSold = tokensSold.add(amount);        \n       \n        //test token sold, if it was sold more than the total available right total token total\n        if (tokensSold > totalTokenToSale) {\n            uint256 diferenceTotalSale = totalTokenToSale.sub(tokensSold);\n            totalTokenToSale = tokensSold;\n            totalSupply = tokensSold.add(diferenceTotalSale);\n        }\n        \n        Transfer(0x0, recipient, amount);\n    }  \n    \n\n    function manuallyAssignTokens(address recipient, uint256 amount) public onlyOwner {\n        require(tokensSold < totalSupply);\n        assignTokens(recipient, amount);\n    }\n\n    function setRate(uint256 _rate) public onlyOwner { \n        require(_rate < 0);               \n        rate = _rate;        \n    }\n\n    function setIcoStage(uint256 _icoStage) public onlyOwner {    \n        require(_icoStage <= 0); \n        require(_icoStage >= 4);             \n        icoStage = _icoStage;        \n    }\n\n    function setPauseEmergence() public onlyOwner {        \n        pauseEmergence = true;\n    }\n\n    function setUnPauseEmergence() public onlyOwner {        \n        pauseEmergence = false;\n    }   \n\n    function sendTokenTeam(address _to, uint256 amount) public onlyOwner {\n        require(_to != 0x0);\n\n        //test deadline to request token\n        require(now >= teamEndTimestamp);\n        assignTokens(_to, amount);\n    }\n\n    function burn(uint256 _value) public whenNotPaused {\n        require(_value > 0);\n\n        address burner = msg.sender;\n        balances[burner] = balances[burner].sub(_value);\n        totalSupply = totalSupply.sub(_value);\n        Burn(burner, _value);\n    }   \n    \n}",
  "sourcePath": "/home/daniz/Documentos/Project/JubsICO/contracts/JubsICO.sol",
  "schemaVersion": "1.0.0",
  "updatedAt": "2017-12-18T14:32:47.963Z"
}