{
  "contractName": "JubsICO",
  "abi": [
    {
      "constant": true,
      "inputs": [],
      "name": "preIcoWallet",
      "outputs": [
        {
          "name": "",
          "type": "address"
        }
      ],
      "payable": false,
      "stateMutability": "view",
      "type": "function"
    },
    {
      "constant": true,
      "inputs": [],
      "name": "name",
      "outputs": [
        {
          "name": "",
          "type": "string"
        }
      ],
      "payable": false,
      "stateMutability": "view",
      "type": "function"
    },
    {
      "constant": false,
      "inputs": [
        {
          "name": "_spender",
          "type": "address"
        },
        {
          "name": "_value",
          "type": "uint256"
        }
      ],
      "name": "approve",
      "outputs": [
        {
          "name": "",
          "type": "bool"
        }
      ],
      "payable": false,
      "stateMutability": "nonpayable",
      "type": "function"
    },
    {
      "constant": true,
      "inputs": [],
      "name": "totalTokenToSale",
      "outputs": [
        {
          "name": "",
          "type": "uint256"
        }
      ],
      "payable": false,
      "stateMutability": "view",
      "type": "function"
    },
    {
      "constant": true,
      "inputs": [],
      "name": "totalSupply",
      "outputs": [
        {
          "name": "",
          "type": "uint256"
        }
      ],
      "payable": false,
      "stateMutability": "view",
      "type": "function"
    },
    {
      "constant": false,
      "inputs": [
        {
          "name": "recipient",
          "type": "address"
        },
        {
          "name": "amount",
          "type": "uint256"
        }
      ],
      "name": "manuallyAssignTokens",
      "outputs": [],
      "payable": false,
      "stateMutability": "nonpayable",
      "type": "function"
    },
    {
      "constant": true,
      "inputs": [
        {
          "name": "_from",
          "type": "address"
        },
        {
          "name": "_to",
          "type": "address"
        },
        {
          "name": "_value",
          "type": "uint256"
        }
      ],
      "name": "icoWallet",
      "outputs": [
        {
          "name": "",
          "type": "address"
        }
      ],
      "payable": false,
      "stateMutability": "view",
      "type": "function"
    },
    {
      "constant": false,
      "inputs": [
        {
          "name": "_from",
          "type": "address"
        },
        {
          "name": "_to",
          "type": "address"
        },
        {
          "name": "_value",
          "type": "uint256"
        }
      ],
      "name": "transferFrom",
      "outputs": [
        {
          "name": "",
          "type": "bool"
        }
      ],
      "payable": false,
      "stateMutability": "nonpayable",
      "type": "function"
    },
    {
      "constant": true,
      "inputs": [],
      "name": "icoEndTimestampStage3",
      "outputs": [
        {
          "name": "",
          "type": "uint256"
        }
      ],
      "payable": false,
      "stateMutability": "view",
      "type": "function"
    },
    {
      "constant": true,
      "inputs": [
        {
          "name": "_rate",
          "type": "uint256"
        }
      ],
      "name": "icoStartTimestampStage3",
      "outputs": [
        {
          "name": "",
          "type": "uint256"
        }
      ],
      "payable": false,
      "stateMutability": "view",
      "type": "function"
    },
    {
      "constant": true,
      "inputs": [],
      "name": "rate",
      "outputs": [
        {
          "name": "",
          "type": "uint256"
        }
      ],
      "payable": false,
      "stateMutability": "view",
      "type": "function"
    },
    {
      "constant": true,
      "inputs": [
        {
          "name": "_value",
          "type": "uint256"
        }
      ],
      "name": "decimals",
      "outputs": [
        {
          "name": "",
          "type": "uint256"
        }
      ],
      "payable": false,
      "stateMutability": "view",
      "type": "function"
    },
    {
      "constant": false,
      "inputs": [
        {
          "name": "_rate",
          "type": "uint256"
        }
      ],
      "name": "setRate",
      "outputs": [
        {
          "name": "",
          "type": "address"
        }
      ],
      "payable": false,
      "stateMutability": "nonpayable",
      "type": "function"
    },
    {
      "constant": false,
      "inputs": [
        {
          "name": "_icoStage",
          "type": "uint256"
        }
      ],
      "name": "setIcoStage",
      "outputs": [
        {
          "name": "",
          "type": "uint256"
        }
      ],
      "payable": false,
      "stateMutability": "nonpayable",
      "type": "function"
    },
    {
      "constant": false,
      "inputs": [],
      "name": "unpause",
      "outputs": [
        {
          "name": "",
          "type": "address"
        }
      ],
      "payable": false,
      "stateMutability": "nonpayable",
      "type": "function"
    },
    {
      "constant": false,
      "inputs": [
        {
          "name": "_value",
          "type": "uint256"
        }
      ],
      "name": "burn",
      "outputs": [
        {
          "name": "",
          "type": "address"
        }
      ],
      "payable": false,
      "stateMutability": "nonpayable",
      "type": "function"
    },
    {
      "constant": true,
      "inputs": [],
      "name": "icoStartTimestampStage2",
      "outputs": [
        {
          "name": "",
          "type": "uint256"
        }
      ],
      "payable": false,
      "stateMutability": "view",
      "type": "function"
    },
    {
      "constant": true,
      "inputs": [
        {
          "name": "_spender",
          "type": "address"
        },
        {
          "name": "_subtractedValue",
          "type": "uint256"
        }
      ],
      "name": "icoEndTimestampStage4",
      "outputs": [
        {
          "name": "",
          "type": "uint256"
        }
      ],
      "payable": false,
      "stateMutability": "view",
      "type": "function"
    },
    {
      "constant": true,
      "inputs": [
        {
          "name": "_owner",
          "type": "address"
        }
      ],
      "name": "tokensSold",
      "outputs": [
        {
          "name": "",
          "type": "uint256"
        }
      ],
      "payable": false,
      "stateMutability": "view",
      "type": "function"
    },
    {
      "constant": true,
      "inputs": [],
      "name": "teamWallet",
      "outputs": [
        {
          "name": "",
          "type": "address"
        }
      ],
      "payable": false,
      "stateMutability": "view",
      "type": "function"
    },
    {
      "constant": true,
      "inputs": [],
      "name": "rewardsWallet",
      "outputs": [
        {
          "name": "",
          "type": "address"
        }
      ],
      "payable": false,
      "stateMutability": "view",
      "type": "function"
    },
    {
      "constant": true,
      "inputs": [],
      "name": "paused",
      "outputs": [
        {
          "name": "",
          "type": "bool"
        }
      ],
      "payable": false,
      "stateMutability": "view",
      "type": "function"
    },
    {
      "constant": true,
      "inputs": [],
      "name": "icoStartTimestampStage4",
      "outputs": [
        {
          "name": "",
          "type": "uint256"
        }
      ],
      "payable": false,
      "stateMutability": "view",
      "type": "function"
    },
    {
      "constant": true,
      "inputs": [],
      "name": "icoEndTimestampStage2",
      "outputs": [
        {
          "name": "",
          "type": "uint256"
        }
      ],
      "payable": false,
      "stateMutability": "view",
      "type": "function"
    },
    {
      "constant": false,
      "inputs": [
        {
          "name": "_spender",
          "type": "address"
        },
        {
          "name": "_subtractedValue",
          "type": "uint256"
        }
      ],
      "name": "decreaseApproval",
      "outputs": [
        {
          "name": "success",
          "type": "bool"
        }
      ],
      "payable": false,
      "stateMutability": "nonpayable",
      "type": "function"
    },
    {
      "constant": true,
      "inputs": [],
      "name": "advisorsWallet",
      "outputs": [
        {
          "name": "",
          "type": "address"
        }
      ],
      "payable": false,
      "stateMutability": "view",
      "type": "function"
    },
    {
      "constant": true,
      "inputs": [
        {
          "name": "_owner",
          "type": "address"
        },
        {
          "name": "_value",
          "type": "uint256"
        }
      ],
      "name": "balanceOf",
      "outputs": [
        {
          "name": "balance",
          "type": "uint256"
        }
      ],
      "payable": false,
      "stateMutability": "view",
      "type": "function"
    },
    {
      "constant": true,
      "inputs": [],
      "name": "arbitrationWallet",
      "outputs": [
        {
          "name": "",
          "type": "address"
        }
      ],
      "payable": false,
      "stateMutability": "view",
      "type": "function"
    },
    {
      "constant": true,
      "inputs": [],
      "name": "pauseEmergence",
      "outputs": [
        {
          "name": "",
          "type": "bool"
        }
      ],
      "payable": false,
      "stateMutability": "view",
      "type": "function"
    },
    {
      "constant": false,
      "inputs": [],
      "name": "pause",
      "outputs": [
        {
          "name": "",
          "type": "uint256"
        }
      ],
      "payable": false,
      "stateMutability": "nonpayable",
      "type": "function"
    },
    {
      "constant": true,
      "inputs": [],
      "name": "owner",
      "outputs": [
        {
          "name": "",
          "type": "address"
        }
      ],
      "payable": false,
      "stateMutability": "view",
      "type": "function"
    },
    {
      "constant": true,
      "inputs": [],
      "name": "symbol",
      "outputs": [
        {
          "name": "",
          "type": "string"
        }
      ],
      "payable": false,
      "stateMutability": "view",
      "type": "function"
    },
    {
      "constant": true,
      "inputs": [],
      "name": "walletETH",
      "outputs": [
        {
          "name": "",
          "type": "address"
        }
      ],
      "payable": false,
      "stateMutability": "view",
      "type": "function"
    },
    {
      "constant": true,
      "inputs": [
        {
          "name": "_spender",
          "type": "address"
        },
        {
          "name": "_addedValue",
          "type": "uint256"
        }
      ],
      "name": "icoStartTimestampStage1",
      "outputs": [
        {
          "name": "",
          "type": "uint256"
        }
      ],
      "payable": false,
      "stateMutability": "view",
      "type": "function"
    },
    {
      "constant": false,
      "inputs": [],
      "name": "buy",
      "outputs": [],
      "payable": true,
      "stateMutability": "payable",
      "type": "function"
    },
    {
      "constant": false,
      "inputs": [
        {
          "name": "_to",
          "type": "address"
        },
        {
          "name": "_value",
          "type": "uint256"
        }
      ],
      "name": "transfer",
      "outputs": [
        {
          "name": "",
          "type": "bool"
        }
      ],
      "payable": false,
      "stateMutability": "nonpayable",
      "type": "function"
    },
    {
      "constant": true,
      "inputs": [
        {
          "name": "newOwner",
          "type": "address"
        }
      ],
      "name": "bountyMktWallet",
      "outputs": [
        {
          "name": "",
          "type": "address"
        }
      ],
      "payable": false,
      "stateMutability": "view",
      "type": "function"
    },
    {
      "inputs": [
        {
          "name": "_wallet",
          "type": "address"
        },
        {
          "name": "_investorsWallet",
          "type": "address"
        },
        {
          "name": "_workingCapitalWallet",
          "type": "address"
        },
        {
          "name": "_walletToken",
          "type": "address"
        },
        {
          "name": "_teamWallet",
          "type": "address"
        },
        {
          "name": "_rewardWallet",
          "type": "address"
        },
        {
          "name": "_advisior",
          "type": "address"
        },
        {
          "name": "_icoEtherMinCap",
          "type": "uint256"
        },
        {
          "name": "_icoEtherMaxCap",
          "type": "uint256"
        }
      ],
      "payable": false,
      "stateMutability": "view",
      "type": "function",
      "constant": true,
      "name": "teamEndTimestamp",
      "outputs": [
        {
          "name": "",
          "type": "uint256"
        }
      ]
    },
    {
      "payable": false,
      "stateMutability": "view",
      "type": "function",
      "inputs": [
        {
          "name": "_wallet",
          "type": "address"
        },
        {
          "name": "_investorsWallet",
          "type": "address"
        },
        {
          "name": "_workingCapitalWallet",
          "type": "address"
        },
        {
          "name": "_walletToken",
          "type": "address"
        },
        {
          "name": "_teamWallet",
          "type": "address"
        },
        {
          "name": "_rewardWallet",
          "type": "address"
        },
        {
          "name": "_advisior",
          "type": "address"
        },
        {
          "name": "_icoEtherMinCap",
          "type": "uint256"
        },
        {
          "name": "_icoEtherMaxCap",
          "type": "uint256"
        }
      ],
      "constant": true,
      "name": "icoEndTimestampStage",
      "outputs": [
        {
          "name": "",
          "type": "uint256"
        }
      ]
    },
    {
      "anonymous": false,
      "inputs": [
        {
          "indexed": true,
          "name": "burner",
          "type": "address"
        },
        {
          "indexed": false,
          "name": "value",
          "type": "uint256"
        }
      ],
      "name": "setPauseEmergence",
      "type": "function",
      "payable": false,
      "stateMutability": "nonpayable",
      "constant": false,
      "outputs": []
    },
    {
      "anonymous": false,
      "inputs": [
        {
          "indexed": true,
          "name": "burner",
          "type": "address"
        },
        {
          "indexed": false,
          "name": "value",
          "type": "uint256"
        }
      ],
      "name": "totalRaised",
      "type": "function",
      "constant": true,
      "outputs": [
        {
          "name": "",
          "type": "uint256"
        }
      ],
      "payable": false,
      "stateMutability": "view"
    },
    {
      "anonymous": false,
      "inputs": [],
      "name": "icoEndTimestampStage1",
      "type": "function",
      "constant": true,
      "outputs": [
        {
          "name": "",
          "type": "uint256"
        }
      ],
      "payable": false,
      "stateMutability": "view"
    },
    {
      "anonymous": false,
      "inputs": [
        {
          "indexed": true,
          "name": "_spender",
          "type": "address"
        },
        {
          "indexed": true,
          "name": "_addedValue",
          "type": "uint256"
        }
      ],
      "name": "increaseApproval",
      "type": "function",
      "constant": false,
      "outputs": [
        {
          "name": "success",
          "type": "bool"
        }
      ],
      "payable": false,
      "stateMutability": "nonpayable"
    },
    {
      "anonymous": false,
      "inputs": [
        {
          "indexed": true,
          "name": "previousOwner",
          "type": "address"
        },
        {
          "indexed": true,
          "name": "newOwner",
          "type": "address"
        },
        {
          "indexed": false,
          "name": "value",
          "type": "uint256"
        }
      ],
      "name": "setUnPauseEmergence",
      "type": "function",
      "constant": false,
      "outputs": [],
      "payable": false,
      "stateMutability": "nonpayable"
    },
    {
      "anonymous": false,
      "inputs": [
        {
          "indexed": true,
          "name": "_owner",
          "type": "address"
        },
        {
          "indexed": true,
          "name": "_spender",
          "type": "address"
        },
        {
          "indexed": false,
          "name": "value",
          "type": "uint256"
        }
      ],
      "name": "allowance",
      "type": "function",
      "constant": true,
      "outputs": [
        {
          "name": "remaining",
          "type": "uint256"
        }
      ],
      "payable": false,
      "stateMutability": "view"
    },
    {
      "anonymous": false,
      "inputs": [
        {
          "indexed": true,
          "name": "from",
          "type": "address"
        },
        {
          "indexed": true,
          "name": "to",
          "type": "address"
        },
        {
          "indexed": false,
          "name": "value",
          "type": "uint256"
        }
      ],
      "name": "icoStartTimestampStage",
      "type": "function",
      "constant": true,
      "outputs": [
        {
          "name": "",
          "type": "uint256"
        }
      ],
      "payable": false,
      "stateMutability": "view"
    },
    {
      "constant": true,
      "inputs": [],
      "name": "operationWallet",
      "outputs": [
        {
          "name": "",
          "type": "address"
        }
      ],
      "payable": false,
      "stateMutability": "view",
      "type": "function"
    },
    {
      "constant": false,
      "inputs": [
        {
          "name": "_to",
          "type": "address"
        },
        {
          "name": "amount",
          "type": "uint256"
        }
      ],
      "name": "sendTokenTeam",
      "outputs": [
        {
          "name": "sendTokenTeam",
          "type": "bool"
        }
      ],
      "payable": false,
      "stateMutability": "nonpayable",
      "type": "function"
    },
    {
      "constant": false,
      "inputs": [
        {
          "name": "newOwner",
          "type": "address"
        }
      ],
      "name": "transferOwnership",
      "outputs": [],
      "payable": false,
      "stateMutability": "nonpayable",
      "type": "function"
    },
    {
      "constant": true,
      "inputs": [],
      "name": "icoStage",
      "outputs": [
        {
          "name": "",
          "type": "uint256"
        }
      ],
      "payable": false,
      "stateMutability": "view",
      "type": "function"
    },
    {
      "inputs": [
        {
          "name": "_icoWallet",
          "type": "address"
        },
        {
          "name": "_preIcoWallet",
          "type": "address"
        },
        {
          "name": "_teamWallet",
          "type": "address"
        },
        {
          "name": "_bountyMktWallet",
          "type": "address"
        },
        {
          "name": "_arbitrationWallet",
          "type": "address"
        },
        {
          "name": "_rewardsWallet",
          "type": "address"
        },
        {
          "name": "_advisorsWallet",
          "type": "address"
        },
        {
          "name": "_operationWallet",
          "type": "address"
        }
      ],
      "payable": false,
      "stateMutability": "nonpayable",
      "type": "constructor"
    },
    {
      "anonymous": false,
      "inputs": [
        {
          "indexed": true,
          "name": "burner",
          "type": "address"
        },
        {
          "indexed": false,
          "name": "value",
          "type": "uint256"
        }
      ],
      "name": "Burn",
      "type": "event"
    },
    {
      "anonymous": false,
      "inputs": [],
      "name": "Pause",
      "type": "event"
    },
    {
      "anonymous": false,
      "inputs": [],
      "name": "Unpause",
      "type": "event"
    },
    {
      "anonymous": false,
      "inputs": [
        {
          "indexed": true,
          "name": "previousOwner",
          "type": "address"
        },
        {
          "indexed": true,
          "name": "newOwner",
          "type": "address"
        }
      ],
      "name": "OwnershipTransferred",
      "type": "event"
    },
    {
      "anonymous": false,
      "inputs": [
        {
          "indexed": true,
          "name": "owner",
          "type": "address"
        },
        {
          "indexed": true,
          "name": "spender",
          "type": "address"
        },
        {
          "indexed": false,
          "name": "value",
          "type": "uint256"
        }
      ],
      "name": "Approval",
      "type": "event"
    },
    {
      "anonymous": false,
      "inputs": [
        {
          "indexed": true,
          "name": "from",
          "type": "address"
        },
        {
          "indexed": true,
          "name": "to",
          "type": "address"
        },
        {
          "indexed": false,
          "name": "value",
          "type": "uint256"
        }
      ],
      "name": "Transfer",
      "type": "event"
    }
  ],
  "bytecode": "0x606060409081526002805460a060020a60ff02191690558051908101604052600581527f486f6e6f72000000000000000000000000000000000000000000000000000000602082015260049080516200005d92916020019062000638565b5060408051908101604052600381527f484e52000000000000000000000000000000000000000000000000000000000060208201526005908051620000a792916020019062000638565b50601260068190556825f273933db570000060075560006011819055908190556013819055601455610dac6015556016805460ff19169055635a5bef00601755635a88c1ff601855635a8a1380601955635a934dff601a55635a934e00601b55635a9c887f601c55635a9c8880601d55635aa5c2ff601e55635aa5c300601f55635aaefd7f602055635e1e560060215534156200014357600080fd5b6040516101008062001b9e833981016040528080519190602001805191906020018051919060200180519190602001805191906020018051919060200180519190602001805160028054600160a060020a03191633600160a060020a0390811691909117909155909250891615159050620001bd57600080fd5b600160a060020a0387161515620001d357600080fd5b600160a060020a0386161515620001e957600080fd5b600160a060020a0385161515620001ff57600080fd5b600160a060020a03841615156200021557600080fd5b600160a060020a03831615156200022b57600080fd5b600160a060020a03821615156200024157600080fd5b60098054600160a060020a0319908116600160a060020a038b811691909117909255600a805482168a8416179055600b80548216898416179055600c80548216888416179055600d80548216878416179055600e80548216868416179055600f8054821685841617905560108054909116918316919091179055600754620002f690606490620002e190603f640100000000620005488102620014141704565b906401000000006200146e6200057682021704565b600954600160a060020a0316600090815260016020526040902055600780546200033691606491620002e191640100000000620014146200054882021704565b600a8054600160a060020a03166000908152600160205260409020919091556007546200037991606491620002e191640100000000620014146200054882021704565b600b54600160a060020a031660009081526001602052604090205560078054620003b991606491620002e191640100000000620014146200054882021704565b600c54600160a060020a0316600090815260016020526040902055600754620003fa90606490620002e1906005640100000000620014146200054882021704565b600d54600160a060020a03166000908152600160205260409020556007546200043b90606490620002e1906005640100000000620014146200054882021704565b600e54600160a060020a03166000908152600160205260409020556007546200047c90606490620002e1906002640100000000620014146200054882021704565b600f54600160a060020a0316600090815260016020819052604090912091909155600754620004c191606491620002e191640100000000620014146200054882021704565b601054600160a060020a0316600090815260016020526040902055620004f464010000000062000d8c6200058e82021704565b600a54600160a060020a039081166000908152600160205260408082205460095490931682529020546200053691640100000000620013fe6200062882021704565b60145550620006dd9650505050505050565b60008282028315806200056657508284828115156200056357fe5b04145b15156200056f57fe5b9392505050565b60008082848115156200058557fe5b04949350505050565b60025433600160a060020a03908116911614620005aa57600080fd5b60025474010000000000000000000000000000000000000000900460ff1615620005d357600080fd5b6002805460a060020a60ff021916740100000000000000000000000000000000000000001790557f6985a02210a168e66602d3235cb6db0e70f92b3ba4d376a33c0f3d9434bff62560405160405180910390a1565b6000828201838110156200056f57fe5b828054600181600116156101000203166002900490600052602060002090601f016020900481019282601f106200067b57805160ff1916838001178555620006ab565b82800160010185558215620006ab579182015b82811115620006ab5782518255916020019190600101906200068e565b50620006b9929150620006bd565b5090565b620006da91905b80821115620006b95760008155600101620006c4565b90565b6114b180620006ed6000396000f300606060405236156102595763ffffffff7c010000000000000000000000000000000000000000000000000000000060003504166306780cf5811461025e57806306fdde031461028d578063095ea7b3146103175780631067f3611461034d57806318160ddd146103725780631d1ada901461038557806322287914146103a957806323b872dd146103bc5780632ab76377146103e45780632c0f13a7146103f75780632c4e722e1461040a578063313ce5671461041d57806334fcf437146104305780633beb4db1146104465780633f4ba83a1461045c57806342966c681461046f57806342992dd5146104855780634f162f8f14610498578063518ab2a8146104ab57806359927044146104be5780635b35f9c9146104d15780635c975abb146104e45780635ddb2585146104f757806362fec51b1461050a578063661884631461051d5780636b252b471461053f57806370a08231146105525780637704533d1461057157806379162aeb146105845780638456cb59146105975780638da5cb5b146105aa57806395d89b41146105bd5780639d0c1e6f146105d0578063a1664ae2146105e3578063a6f2ae3a146105f6578063a9059cbb146105fe578063aa72f21714610620578063ac00c3e614610633578063af8d5a4814610646578063c58684ab14610659578063c5c4744c1461066c578063cc34a2471461067f578063d73dd62314610692578063d7eae6db146106b4578063dd62ed3e146106c7578063dee1cfd8146106ec578063e042ad58146106ff578063f2b175c014610712578063f2fde38b14610734578063fc00234e14610753575b600080fd5b341561026957600080fd5b610271610766565b604051600160a060020a03909116815260200160405180910390f35b341561029857600080fd5b6102a0610775565b60405160208082528190810183818151815260200191508051906020019080838360005b838110156102dc5780820151838201526020016102c4565b50505050905090810190601f1680156103095780820380516001836020036101000a031916815260200191505b509250505060405180910390f35b341561032257600080fd5b610339600160a060020a0360043516602435610813565b604051901515815260200160405180910390f35b341561035857600080fd5b610360610896565b60405190815260200160405180910390f35b341561037d57600080fd5b61036061089c565b341561039057600080fd5b6103a7600160a060020a03600435166024356108a2565b005b34156103b457600080fd5b6102716108db565b34156103c757600080fd5b610339600160a060020a03600435811690602435166044356108ea565b34156103ef57600080fd5b610360610a2d565b341561040257600080fd5b610360610a33565b341561041557600080fd5b610360610a39565b341561042857600080fd5b610360610a3f565b341561043b57600080fd5b6103a7600435610a45565b341561045157600080fd5b6103a7600435610a72565b341561046757600080fd5b6103a7610aae565b341561047a57600080fd5b6103a7600435610b2d565b341561049057600080fd5b610360610be9565b34156104a357600080fd5b610360610bef565b34156104b657600080fd5b610360610bf5565b34156104c957600080fd5b610271610bfb565b34156104dc57600080fd5b610271610c0a565b34156104ef57600080fd5b610339610c19565b341561050257600080fd5b610360610c29565b341561051557600080fd5b610360610c2f565b341561052857600080fd5b610339600160a060020a0360043516602435610c35565b341561054a57600080fd5b610271610d4a565b341561055d57600080fd5b610360600160a060020a0360043516610d59565b341561057c57600080fd5b610271610d74565b341561058f57600080fd5b610339610d83565b34156105a257600080fd5b6103a7610d8c565b34156105b557600080fd5b610271610e10565b34156105c857600080fd5b6102a0610e1f565b34156105db57600080fd5b610271610e8a565b34156105ee57600080fd5b610360610e99565b6103a7610e9f565b341561060957600080fd5b610339600160a060020a0360043516602435610fcb565b341561062b57600080fd5b6102716110a1565b341561063e57600080fd5b6103606110b0565b341561065157600080fd5b6103606110b6565b341561066457600080fd5b6103a76110bc565b341561067757600080fd5b6103606110e6565b341561068a57600080fd5b6103606110ec565b341561069d57600080fd5b610339600160a060020a03600435166024356110f2565b34156106bf57600080fd5b6103a76111ae565b34156106d257600080fd5b610360600160a060020a03600435811690602435166111d5565b34156106f757600080fd5b61036061121b565b341561070a57600080fd5b610271611221565b341561071d57600080fd5b6103a7600160a060020a0360043516602435611230565b341561073f57600080fd5b6103a7600160a060020a036004351661126f565b341561075e57600080fd5b61036061130a565b600a54600160a060020a031681565b60048054600181600116156101000203166002900480601f01602080910402602001604051908101604052809291908181526020018280546001816001161561010002031660029004801561080b5780601f106107e05761010080835404028352916020019161080b565b820191906000526020600020905b8154815290600101906020018083116107ee57829003601f168201915b505050505081565b60025460009060a060020a900460ff161561082d57600080fd5b600160a060020a03338116600081815260036020908152604080832094881680845294909152908190208590557f8c5be1e5ebec7d5bd14f71427d1e84f3dd0314c0f7b2291e5b200ac8c7c3b9259085905190815260200160405180910390a350600192915050565b60145481565b60075481565b60025433600160a060020a039081169116146108bd57600080fd5b600754601254106108cd57600080fd5b6108d78282611310565b5050565b600954600160a060020a031681565b600254600090819060a060020a900460ff161561090657600080fd5b600160a060020a038416151561091b57600080fd5b50600160a060020a03808516600081815260036020908152604080832033909516835293815283822054928252600190529190912054610961908463ffffffff6113ec16565b600160a060020a038087166000908152600160205260408082209390935590861681522054610996908463ffffffff6113fe16565b600160a060020a0385166000908152600160205260409020556109bf818463ffffffff6113ec16565b600160a060020a03808716600081815260036020908152604080832033861684529091529081902093909355908616917fddf252ad1be2c89b69c2b068fc378daa952ba7f163c4a11628f55a4df523b3ef9086905190815260200160405180910390a3506001949350505050565b601e5481565b601d5481565b60155481565b60065481565b60025433600160a060020a03908116911614610a6057600080fd5b60008110610a6d57600080fd5b601555565b60025433600160a060020a03908116911614610a8d57600080fd5b6000811115610a9b57600080fd5b6004811015610aa957600080fd5b601155565b60025433600160a060020a03908116911614610ac957600080fd5b60025460a060020a900460ff161515610ae157600080fd5b6002805474ff0000000000000000000000000000000000000000191690557f7805862f689e2f13df9f062ff482ad3ad112aca9e0847911ed832e158c525b3360405160405180910390a1565b60025460009060a060020a900460ff1615610b4757600080fd5b60008211610b5457600080fd5b5033600160a060020a038116600090815260016020526040902054610b7990836113ec565b600160a060020a038216600090815260016020526040902055600754610ba5908363ffffffff6113ec16565b600755600160a060020a0381167fcc16f5dbb4873280815c1ee09dbd06736cffcc184412cf7a71a0fdb75d397ca58360405190815260200160405180910390a25050565b601b5481565b60205481565b60125481565b600b54600160a060020a031681565b600e54600160a060020a031681565b60025460a060020a900460ff1681565b601f5481565b601c5481565b600254600090819060a060020a900460ff1615610c5157600080fd5b50600160a060020a0333811660009081526003602090815260408083209387168352929052205480831115610cad57600160a060020a033381166000908152600360209081526040808320938816835292905290812055610ce4565b610cbd818463ffffffff6113ec16565b600160a060020a033381166000908152600360209081526040808320938916835292905220555b600160a060020a0333811660008181526003602090815260408083209489168084529490915290819020547f8c5be1e5ebec7d5bd14f71427d1e84f3dd0314c0f7b2291e5b200ac8c7c3b925915190815260200160405180910390a35060019392505050565b600f54600160a060020a031681565b600160a060020a031660009081526001602052604090205490565b600d54600160a060020a031681565b60165460ff1681565b60025433600160a060020a03908116911614610da757600080fd5b60025460a060020a900460ff1615610dbe57600080fd5b6002805474ff0000000000000000000000000000000000000000191660a060020a1790557f6985a02210a168e66602d3235cb6db0e70f92b3ba4d376a33c0f3d9434bff62560405160405180910390a1565b600254600160a060020a031681565b60058054600181600116156101000203166002900480601f01602080910402602001604051908101604052809291908181526020018280546001816001161561010002031660029004801561080b5780601f106107e05761010080835404028352916020019161080b565b600854600160a060020a031681565b60195481565b60165460009060ff1615610eb257600080fd5b60003411610ebf57600080fd5b6011541515610ee657601754421015610ed757600080fd5b601854421115610ee657600080fd5b60115460011415610f0f57601954421015610f0057600080fd5b601a54421115610f0f57600080fd5b60115460021415610f3857601b54421015610f2957600080fd5b601c54421115610f3857600080fd5b60115460031415610f6157601d54421015610f5257600080fd5b601e54421115610f6157600080fd5b60115460041415610f8a57601f54421015610f7b57600080fd5b602054421115610f8a57600080fd5b601554610f9e90349063ffffffff61141416565b9050610faa3382611310565b601354610fbd903463ffffffff6113fe16565b601355610fc8611438565b50565b6000600160a060020a0383161515610fe257600080fd5b600160a060020a03331660009081526001602052604090205461100b908363ffffffff6113ec16565b600160a060020a033381166000908152600160205260408082209390935590851681522054611040908363ffffffff6113fe16565b600160a060020a0380851660008181526001602052604090819020939093559133909116907fddf252ad1be2c89b69c2b068fc378daa952ba7f163c4a11628f55a4df523b3ef9085905190815260200160405180910390a350600192915050565b600c54600160a060020a031681565b60215481565b60185481565b60025433600160a060020a039081169116146110d757600080fd5b6016805460ff19166001179055565b60135481565b601a5481565b60025460009060a060020a900460ff161561110c57600080fd5b600160a060020a03338116600090815260036020908152604080832093871683529290522054611142908363ffffffff6113fe16565b600160a060020a0333811660008181526003602090815260408083209489168084529490915290819020849055919290917f8c5be1e5ebec7d5bd14f71427d1e84f3dd0314c0f7b2291e5b200ac8c7c3b92591905190815260200160405180910390a350600192915050565b60025433600160a060020a039081169116146111c957600080fd5b6016805460ff19169055565b60025460009060a060020a900460ff16156111ef57600080fd5b50600160a060020a03918216600090815260036020908152604080832093909416825291909152205490565b60175481565b601054600160a060020a031681565b60025433600160a060020a0390811691161461124b57600080fd5b600160a060020a038216151561126057600080fd5b6021544210156108cd57600080fd5b60025433600160a060020a0390811691161461128a57600080fd5b600160a060020a038116151561129f57600080fd5b600254600160a060020a0380831691167f8be0079c531659141344cd1fd0a4f28419497f9722a3daafe3b4186f6b6457e060405160405180910390a36002805473ffffffffffffffffffffffffffffffffffffffff1916600160a060020a0392909216919091179055565b60115481565b600160a060020a038216600090815260016020526040812054611339908363ffffffff6113fe16565b600160a060020a038416600090815260016020526040902055601254611365908363ffffffff6113fe16565b60128190556014549011156113a8576012546014546113899163ffffffff6113ec16565b60125460148190559091506113a4908263ffffffff6113fe16565b6007555b82600160a060020a031660007fddf252ad1be2c89b69c2b068fc378daa952ba7f163c4a11628f55a4df523b3ef8460405190815260200160405180910390a3505050565b6000828211156113f857fe5b50900390565b60008282018381101561140d57fe5b9392505050565b6000828202831580611430575082848281151561142d57fe5b04145b151561140d57fe5b600854600160a060020a03163480156108fc0290604051600060405180830381858888f19350505050151561146c57600080fd5b565b600080828481151561147c57fe5b049493505050505600a165627a7a72305820b9019ddba57f24271c1adefe3ca984b802699b258d23f72de36e5153cc578a120029",
  "source": "pragma solidity ^0.4.15;\n\nimport './ERC20Basic.sol';\nimport './StandardToken.sol';\n\ncontract JubsICO is StandardToken {\n    using SafeMath for uint256;\n\n    //Information coin\n    string public name = \"Honor\";\n    string public symbol = \"HNR\";\n    uint256 public decimals = 18;\n    uint256 public totalSupply = 10 * (10*7) * (10 ** decimals); //100 000 000 HNR\n\n    //Adress informated in white paper \n    address public walletETH;                           //Wallet ETH\n    address public icoWallet;                           //63%\n    address public preIcoWallet;                        //7%\n    address public teamWallet;                          //10%\n    address public bountyMktWallet;                     //7%\n    address public arbitrationWallet;                   //5%\n    address public rewardsWallet;                       //5%\n    address public advisorsWallet;                      //2%\n    address public operationWallet;                     //1%       \n\n    //Utils ICO   \n    uint256 public icoStage = 0;        \n    uint256 public tokensSold = 0;                      // total number of tokens sold\n    uint256 public totalRaised = 0;                     // total amount of money raised in wei\n    uint256 public totalTokenToSale = 0;\n    uint256 public rate = 3500;                         // HNR/ETH rate / initial 50%\n    bool public pauseEmergence = false;                 //the owner address can set this to true to halt the crowdsale due to emergency\n    \n\n    //Time Start and Time end\n    //Stage pre sale                                            //50%\n    uint256 public icoStartTimestampStage = 1515974400;         //15/01/2018 @ 00:00am (UTC)\n    uint256 public icoEndTimestampStage = 1518911999;           //18/02/2018 @ 11:59pm (UTC)\n\n    //Stage 1                                                   //25%\n    uint256 public icoStartTimestampStage1 = 1518998400;        //19/02/2018 @ 00:00am (UTC)\n    uint256 public icoEndTimestampStage1 = 1519603199;          //25/02/2018 @ 11:59pm (UTC)\n\n    //Stage 2                                                   //20%\n    uint256 public icoStartTimestampStage2 = 1519603200;        //26/02/2018 @ 00:00am (UTC)\n    uint256 public icoEndTimestampStage2 = 1520207999;          //04/03/2018 @ 11:59pm (UTC)\n\n    //Stage 3                                                   //15%\n    uint256 public icoStartTimestampStage3 = 1520208000;        //05/03/2018 @ 00:00am (UTC)\n    uint256 public icoEndTimestampStage3 = 1520812799;          //11/03/2018 @ 11:59pm (UTC)\n\n    //Stage 4                                                   //10%\n    uint256 public icoStartTimestampStage4 = 1520812800;        //12/02/2018 @ 00:00am (UTC)\n    uint256 public icoEndTimestampStage4 = 1521417599;          //18/02/2018 @ 11:59pm (UTC)\n\n    //end of the waiting time for the team to withdraw \n    uint256 public teamEndTimestamp = 1579046400;               //01/15/2020 @ 12:00am (UTC) \n                                                                \n\n// =================================== Events ================================================\n\n    event Burn(address indexed burner, uint256 value);  \n\n\n// =================================== Constructor =============================================\n       \n    function JubsICO (\n        address  _icoWallet,\n        address  _preIcoWallet,\n        address  _teamWallet,\n        address  _bountyMktWallet,\n        address  _arbitrationWallet,\n        address  _rewardsWallet,\n        address  _advisorsWallet,\n        address  _operationWallet\n        )\n        public \n        {\n            require(_icoWallet != 0x0);\n            require(_preIcoWallet != 0x0);\n            require(_teamWallet != 0x0);\n            require(_bountyMktWallet != 0x0);\n            require(_arbitrationWallet != 0x0);\n            require(_rewardsWallet != 0x0);\n            require(_advisorsWallet != 0x0);            \n            \n            //set wallet that will receive ether\n            icoWallet = _icoWallet;\n\n            //set wallet\n            preIcoWallet = _preIcoWallet;\n            teamWallet = _teamWallet;\n            bountyMktWallet = _bountyMktWallet;\n            arbitrationWallet = _arbitrationWallet;\n            rewardsWallet = _rewardsWallet;\n            advisorsWallet = _advisorsWallet;\n            operationWallet = _operationWallet;\n\n            //Distribution Token  \n            balances[icoWallet] = totalSupply.mul(63).div(100);                 //totalSupply * 63%\n            balances[preIcoWallet] = totalSupply.mul(7).div(100);               //totalSupply * 7%\n            balances[teamWallet] = totalSupply.mul(10).div(100);                //totalSupply * 10%\n            balances[bountyMktWallet] = totalSupply.mul(7).div(100);            //totalSupply * 7%\n            balances[arbitrationWallet] = totalSupply.mul(5).div(100);          //totalSupply * 5%\n            balances[rewardsWallet] = totalSupply.mul(5).div(100);              //totalSupply * 5%\n            balances[advisorsWallet] = totalSupply.mul(2).div(100);             //totalSupply * 2%\n            balances[operationWallet] = totalSupply.mul(1).div(100);            //totalSupply * 1%      \n\n            //set pause\n            pause();\n\n            //set token to sale\n            totalTokenToSale = balances[icoWallet].add(balances[preIcoWallet]);           \n    }\n\n // ======================================== Modifier ==================================================\n\n    modifier acceptsFunds() {   \n        if (icoStage == 0) {\n            require(now >= icoStartTimestampStage);          \n            require(now <= icoEndTimestampStage); \n        }\n\n        if (icoStage == 1) {\n            require(now >= icoStartTimestampStage1);          \n            require(now <= icoEndTimestampStage1);            \n        }\n\n        if (icoStage == 2) {\n            require(now >= icoStartTimestampStage2);          \n            require(now <= icoEndTimestampStage2);            \n        }\n\n        if (icoStage == 3) {\n            require(now >= icoStartTimestampStage3);          \n            require(now <= icoEndTimestampStage3);            \n        }\n\n        if (icoStage == 4) {\n            require(now >= icoStartTimestampStage4);          \n            require(now <= icoEndTimestampStage4);            \n        }             \n               \n        _;\n    }    \n\n    modifier nonZeroBuy() {\n        require(msg.value > 0);\n        _;\n\n    }\n\n    modifier PauseEmergence {\n        require(!pauseEmergence);\n        _;\n    }\n\n\n//========================================== Functions ===========================================================================\n\n    /// fallback function to buy tokens\n    function buy() PauseEmergence nonZeroBuy acceptsFunds payable public {  \n        uint256 amount = msg.value.mul(rate);\n\n        assignTokens(msg.sender, amount);\n        totalRaised = totalRaised.add(msg.value);\n\n        forwardFundsToWallet();\n    } \n\n    function forwardFundsToWallet() internal {        \n        walletETH.transfer(msg.value);              // immediately send Ether to wallet address, propagates exception if execution fails\n    }\n\n    function assignTokens(address recipient, uint256 amount) internal {        \n        balances[recipient] = balances[recipient].add(amount);\n        tokensSold = tokensSold.add(amount);        \n       \n        //test token sold, if it was sold more than the total available right total token total\n        if (tokensSold > totalTokenToSale) {\n            uint256 diferenceTotalSale = totalTokenToSale.sub(tokensSold);\n            totalTokenToSale = tokensSold;\n            totalSupply = tokensSold.add(diferenceTotalSale);\n        }\n        \n        Transfer(0x0, recipient, amount);\n    }  \n    \n\n    function manuallyAssignTokens(address recipient, uint256 amount) public onlyOwner {\n        require(tokensSold < totalSupply);\n        assignTokens(recipient, amount);\n    }\n\n    function setRate(uint256 _rate) public onlyOwner { \n        require(_rate < 0);               \n        rate = _rate;        \n    }\n\n    function setIcoStage(uint256 _icoStage) public onlyOwner {    \n        require(_icoStage <= 0); \n        require(_icoStage >= 4);             \n        icoStage = _icoStage;        \n    }\n\n    function setPauseEmergence() public onlyOwner {        \n        pauseEmergence = true;\n    }\n\n    function setUnPauseEmergence() public onlyOwner {        \n        pauseEmergence = false;\n    }   \n\n    function sendTokenTeam(address _to, uint256 amount) public onlyOwner {\n        require(_to != 0x0);\n\n        //test deadline to request token\n        require(now >= teamEndTimestamp);\n        assignTokens(_to, amount);\n    }\n\n    function burn(uint256 _value) public whenNotPaused {\n        require(_value > 0);\n\n        address burner = msg.sender;\n        balances[burner] = balances[burner].sub(_value);\n        totalSupply = totalSupply.sub(_value);\n        Burn(burner, _value);\n    }   \n    \n}",
  "sourcePath": "/home/daniz/Documentos/Project/JubsICO/JubsICO/contracts/JubsICO.sol",
  "schemaVersion": "1.0.0",
  "updatedAt": "2017-12-17T19:33:06.956Z"
}