{
  "contractName": "JubsICO",
  "abi": [
    {
      "constant": true,
      "inputs": [],
      "name": "investorsWallet",
      "outputs": [
        {
          "name": "",
          "type": "address"
        }
      ],
      "payable": false,
      "stateMutability": "view",
      "type": "function"
    },
    {
      "constant": true,
      "inputs": [],
      "name": "name",
      "outputs": [
        {
          "name": "",
          "type": "string"
        }
      ],
      "payable": false,
      "stateMutability": "view",
      "type": "function"
    },
    {
      "constant": false,
      "inputs": [
        {
          "name": "_spender",
          "type": "address"
        },
        {
          "name": "_value",
          "type": "uint256"
        }
      ],
      "name": "approve",
      "outputs": [
        {
          "name": "",
          "type": "bool"
        }
      ],
      "payable": false,
      "stateMutability": "nonpayable",
      "type": "function"
    },
    {
      "constant": true,
      "inputs": [],
      "name": "totalTokenToSale",
      "outputs": [
        {
          "name": "",
          "type": "uint256"
        }
      ],
      "payable": false,
      "stateMutability": "view",
      "type": "function"
    },
    {
      "constant": true,
      "inputs": [],
      "name": "totalSupply",
      "outputs": [
        {
          "name": "",
          "type": "uint256"
        }
      ],
      "payable": false,
      "stateMutability": "view",
      "type": "function"
    },
    {
      "constant": false,
      "inputs": [
        {
          "name": "recipient",
          "type": "address"
        },
        {
          "name": "amount",
          "type": "uint256"
        }
      ],
      "name": "manuallyAssignTokens",
      "outputs": [],
      "payable": false,
      "stateMutability": "nonpayable",
      "type": "function"
    },
    {
      "constant": false,
      "inputs": [
        {
          "name": "_from",
          "type": "address"
        },
        {
          "name": "_to",
          "type": "address"
        },
        {
          "name": "_value",
          "type": "uint256"
        }
      ],
      "name": "transferFrom",
      "outputs": [
        {
          "name": "",
          "type": "bool"
        }
      ],
      "payable": false,
      "stateMutability": "nonpayable",
      "type": "function"
    },
    {
      "constant": true,
      "inputs": [],
      "name": "rate",
      "outputs": [
        {
          "name": "",
          "type": "uint256"
        }
      ],
      "payable": false,
      "stateMutability": "view",
      "type": "function"
    },
    {
      "constant": true,
      "inputs": [],
      "name": "decimals",
      "outputs": [
        {
          "name": "",
          "type": "uint256"
        }
      ],
      "payable": false,
      "stateMutability": "view",
      "type": "function"
    },
    {
      "constant": false,
      "inputs": [
        {
          "name": "_rate",
          "type": "uint256"
        }
      ],
      "name": "setRate",
      "outputs": [],
      "payable": false,
      "stateMutability": "nonpayable",
      "type": "function"
    },
    {
      "constant": false,
      "inputs": [],
      "name": "unpause",
      "outputs": [],
      "payable": false,
      "stateMutability": "nonpayable",
      "type": "function"
    },
    {
      "constant": false,
      "inputs": [
        {
          "name": "_value",
          "type": "uint256"
        }
      ],
      "name": "burn",
      "outputs": [],
      "payable": false,
      "stateMutability": "nonpayable",
      "type": "function"
    },
    {
      "constant": true,
      "inputs": [],
      "name": "walletToken",
      "outputs": [
        {
          "name": "",
          "type": "address"
        }
      ],
      "payable": false,
      "stateMutability": "view",
      "type": "function"
    },
    {
      "constant": true,
      "inputs": [],
      "name": "tokensSold",
      "outputs": [
        {
          "name": "",
          "type": "uint256"
        }
      ],
      "payable": false,
      "stateMutability": "view",
      "type": "function"
    },
    {
      "constant": true,
      "inputs": [],
      "name": "wallet",
      "outputs": [
        {
          "name": "",
          "type": "address"
        }
      ],
      "payable": false,
      "stateMutability": "view",
      "type": "function"
    },
    {
      "constant": true,
      "inputs": [],
      "name": "teamWallet",
      "outputs": [
        {
          "name": "",
          "type": "address"
        }
      ],
      "payable": false,
      "stateMutability": "view",
      "type": "function"
    },
    {
      "constant": true,
      "inputs": [],
      "name": "paused",
      "outputs": [
        {
          "name": "",
          "type": "bool"
        }
      ],
      "payable": false,
      "stateMutability": "view",
      "type": "function"
    },
    {
      "constant": false,
      "inputs": [
        {
          "name": "_spender",
          "type": "address"
        },
        {
          "name": "_subtractedValue",
          "type": "uint256"
        }
      ],
      "name": "decreaseApproval",
      "outputs": [
        {
          "name": "success",
          "type": "bool"
        }
      ],
      "payable": false,
      "stateMutability": "nonpayable",
      "type": "function"
    },
    {
      "constant": true,
      "inputs": [
        {
          "name": "_owner",
          "type": "address"
        }
      ],
      "name": "balanceOf",
      "outputs": [
        {
          "name": "balance",
          "type": "uint256"
        }
      ],
      "payable": false,
      "stateMutability": "view",
      "type": "function"
    },
    {
      "constant": true,
      "inputs": [],
      "name": "pauseEmergence",
      "outputs": [
        {
          "name": "",
          "type": "bool"
        }
      ],
      "payable": false,
      "stateMutability": "view",
      "type": "function"
    },
    {
      "constant": true,
      "inputs": [],
      "name": "isIcoFinished",
      "outputs": [
        {
          "name": "icoFinished",
          "type": "bool"
        }
      ],
      "payable": false,
      "stateMutability": "view",
      "type": "function"
    },
    {
      "constant": true,
      "inputs": [],
      "name": "workingCapitalWallet",
      "outputs": [
        {
          "name": "",
          "type": "address"
        }
      ],
      "payable": false,
      "stateMutability": "view",
      "type": "function"
    },
    {
      "constant": false,
      "inputs": [],
      "name": "pause",
      "outputs": [],
      "payable": false,
      "stateMutability": "nonpayable",
      "type": "function"
    },
    {
      "constant": true,
      "inputs": [],
      "name": "icoEtherMaxCap",
      "outputs": [
        {
          "name": "",
          "type": "uint256"
        }
      ],
      "payable": false,
      "stateMutability": "view",
      "type": "function"
    },
    {
      "constant": true,
      "inputs": [],
      "name": "owner",
      "outputs": [
        {
          "name": "",
          "type": "address"
        }
      ],
      "payable": false,
      "stateMutability": "view",
      "type": "function"
    },
    {
      "constant": true,
      "inputs": [],
      "name": "symbol",
      "outputs": [
        {
          "name": "",
          "type": "string"
        }
      ],
      "payable": false,
      "stateMutability": "view",
      "type": "function"
    },
    {
      "constant": false,
      "inputs": [
        {
          "name": "_to",
          "type": "address"
        },
        {
          "name": "_value",
          "type": "uint256"
        }
      ],
      "name": "transfer",
      "outputs": [
        {
          "name": "",
          "type": "bool"
        }
      ],
      "payable": false,
      "stateMutability": "nonpayable",
      "type": "function"
    },
    {
      "constant": true,
      "inputs": [],
      "name": "advisior",
      "outputs": [
        {
          "name": "",
          "type": "address"
        }
      ],
      "payable": false,
      "stateMutability": "view",
      "type": "function"
    },
    {
      "constant": true,
      "inputs": [],
      "name": "icoEndTimestamp",
      "outputs": [
        {
          "name": "",
          "type": "uint256"
        }
      ],
      "payable": false,
      "stateMutability": "view",
      "type": "function"
    },
    {
      "constant": true,
      "inputs": [],
      "name": "icoStartTimestamp",
      "outputs": [
        {
          "name": "",
          "type": "uint256"
        }
      ],
      "payable": false,
      "stateMutability": "view",
      "type": "function"
    },
    {
      "constant": true,
      "inputs": [],
      "name": "icoEtherMinCap",
      "outputs": [
        {
          "name": "",
          "type": "uint256"
        }
      ],
      "payable": false,
      "stateMutability": "view",
      "type": "function"
    },
    {
      "constant": false,
      "inputs": [],
      "name": "setPauseEmergence",
      "outputs": [],
      "payable": false,
      "stateMutability": "nonpayable",
      "type": "function"
    },
    {
      "constant": true,
      "inputs": [],
      "name": "totalRaised",
      "outputs": [
        {
          "name": "",
          "type": "uint256"
        }
      ],
      "payable": false,
      "stateMutability": "view",
      "type": "function"
    },
    {
      "constant": false,
      "inputs": [
        {
          "name": "_spender",
          "type": "address"
        },
        {
          "name": "_addedValue",
          "type": "uint256"
        }
      ],
      "name": "increaseApproval",
      "outputs": [
        {
          "name": "success",
          "type": "bool"
        }
      ],
      "payable": false,
      "stateMutability": "nonpayable",
      "type": "function"
    },
    {
      "constant": false,
      "inputs": [],
      "name": "setUnPauseEmergence",
      "outputs": [],
      "payable": false,
      "stateMutability": "nonpayable",
      "type": "function"
    },
    {
      "constant": true,
      "inputs": [
        {
          "name": "_owner",
          "type": "address"
        },
        {
          "name": "_spender",
          "type": "address"
        }
      ],
      "name": "allowance",
      "outputs": [
        {
          "name": "remaining",
          "type": "uint256"
        }
      ],
      "payable": false,
      "stateMutability": "view",
      "type": "function"
    },
    {
      "constant": false,
      "inputs": [
        {
          "name": "newOwner",
          "type": "address"
        }
      ],
      "name": "transferOwnership",
      "outputs": [
        {
          "name": "",
          "type": "address"
        }
      ],
      "payable": false,
      "stateMutability": "nonpayable",
      "type": "function"
    },
    {
      "inputs": [
        {
          "name": "_wallet",
          "type": "address"
        },
        {
          "name": "_investorsWallet",
          "type": "address"
        },
        {
          "name": "_workingCapitalWallet",
          "type": "address"
        },
        {
          "name": "_walletToken",
          "type": "address"
        },
        {
          "name": "_teamWallet",
          "type": "address"
        },
        {
          "name": "_rewardWallet",
          "type": "address"
        },
        {
          "name": "_advisior",
          "type": "address"
        },
        {
          "name": "_icoEtherMinCap",
          "type": "uint256"
        },
        {
          "name": "_icoEtherMaxCap",
          "type": "uint256"
        }
      ],
      "payable": false,
      "stateMutability": "view",
      "type": "function",
      "constant": true,
      "name": "rewardWallet",
      "outputs": [
        {
          "name": "",
          "type": "address"
        }
      ]
    },
    {
      "payable": false,
      "stateMutability": "nonpayable",
      "type": "constructor",
      "inputs": [
        {
          "name": "_wallet",
          "type": "address"
        },
        {
          "name": "_investorsWallet",
          "type": "address"
        },
        {
          "name": "_workingCapitalWallet",
          "type": "address"
        },
        {
          "name": "_walletToken",
          "type": "address"
        },
        {
          "name": "_teamWallet",
          "type": "address"
        },
        {
          "name": "_rewardWallet",
          "type": "address"
        },
        {
          "name": "_advisior",
          "type": "address"
        },
        {
          "name": "_icoEtherMinCap",
          "type": "uint256"
        },
        {
          "name": "_icoEtherMaxCap",
          "type": "uint256"
        }
      ]
    },
    {
      "anonymous": false,
      "inputs": [
        {
          "indexed": true,
          "name": "burner",
          "type": "address"
        },
        {
          "indexed": false,
          "name": "value",
          "type": "uint256"
        }
      ],
      "name": "Burn",
      "type": "fallback",
      "payable": true,
      "stateMutability": "payable"
    },
    {
      "anonymous": false,
      "inputs": [
        {
          "indexed": true,
          "name": "burner",
          "type": "address"
        },
        {
          "indexed": false,
          "name": "value",
          "type": "uint256"
        }
      ],
      "name": "Burn",
      "type": "event"
    },
    {
      "anonymous": false,
      "inputs": [],
      "name": "Pause",
      "type": "event"
    },
    {
      "anonymous": false,
      "inputs": [
        {
          "indexed": true,
          "name": "previousOwner",
          "type": "address"
        },
        {
          "indexed": true,
          "name": "newOwner",
          "type": "address"
        }
      ],
      "name": "Unpause",
      "type": "event"
    },
    {
      "anonymous": false,
      "inputs": [
        {
          "indexed": true,
          "name": "previousOwner",
          "type": "address"
        },
        {
          "indexed": true,
          "name": "newOwner",
          "type": "address"
        },
        {
          "indexed": false,
          "name": "value",
          "type": "uint256"
        }
      ],
      "name": "OwnershipTransferred",
      "type": "event"
    },
    {
      "anonymous": false,
      "inputs": [
        {
          "indexed": true,
          "name": "owner",
          "type": "address"
        },
        {
          "indexed": true,
          "name": "spender",
          "type": "address"
        },
        {
          "indexed": false,
          "name": "value",
          "type": "uint256"
        }
      ],
      "name": "Approval",
      "type": "event"
    },
    {
      "anonymous": false,
      "inputs": [
        {
          "indexed": true,
          "name": "from",
          "type": "address"
        },
        {
          "indexed": true,
          "name": "to",
          "type": "address"
        },
        {
          "indexed": false,
          "name": "value",
          "type": "uint256"
        }
      ],
      "name": "Transfer",
      "type": "event"
    }
  ],
  "bytecode": "0x606060409081526002805460a060020a60ff02191690558051908101604052601181527f4a75627320436f696e2053657276696365000000000000000000000000000000602082015260049080516200005d92916020019062000552565b5060408051908101604052600381527f4a4353000000000000000000000000000000000000000000000000000000000060208201526005908051620000a792916020019062000552565b50601260068190556b43dacaf91c1a84ff080000006007556000600f819055601081905560115561015e90556015805460ff19169055635876c6ff601655635a209b7f6017553415620000f957600080fd5b604051610120806200183a83398101604052808051919060200180519190602001805191906020018051919060200180519190602001805191906020018051919060200180519190602001805160028054600160a060020a03191633600160a060020a03908116919091179091559092508a16151590506200017a57600080fd5b600160a060020a03881615156200019057600080fd5b600160a060020a0387161515620001a657600080fd5b600160a060020a0386161515620001bc57600080fd5b600160a060020a0385161515620001d257600080fd5b600160a060020a0384161515620001e857600080fd5b600160a060020a0383161515620001fe57600080fd5b600082116200020c57600080fd5b600081116200021a57600080fd5b8181116200022757600080fd5b60088054600160a060020a0319908116600160a060020a038c8116919091179092556009805482168b8416179055600a805482168a8416179055600b80548216898416179055600c80548216888416179055600d80548216878416179055600e805490911691851691909117905560138290556014819055600754620002da90606490620002c5906003640100000000620004728102620006a01704565b90640100000000620011f0620004a082021704565b600160a060020a0389166000908152600160205260409020556007546200031990606490620002c590600a640100000000620006a06200047282021704565b600160a060020a0388166000908152600160205260409020556007546200035890606490620002c5906046640100000000620006a06200047282021704565b600160a060020a0387166000908152600160205260409020556007546200039790606490620002c590600a640100000000620006a06200047282021704565b600160a060020a038616600090815260016020526040902055600754620003d690606490620002c5906005640100000000620006a06200047282021704565b600160a060020a0385166000908152600160205260409020556007546200041590606490620002c5906002640100000000620006a06200047282021704565b600160a060020a0384166000908152600160205260409020556200044664010000000062000de0620004b882021704565b505050600160a060020a0390921660009081526001602052604090205460115550620005f79350505050565b60008282028315806200049057508284828115156200048d57fe5b04145b15156200049957fe5b9392505050565b6000808284811515620004af57fe5b04949350505050565b60025433600160a060020a03908116911614620004d457600080fd5b60025474010000000000000000000000000000000000000000900460ff1615620004fd57600080fd5b6002805460a060020a60ff021916740100000000000000000000000000000000000000001790557f6985a02210a168e66602d3235cb6db0e70f92b3ba4d376a33c0f3d9434bff62560405160405180910390a1565b828054600181600116156101000203166002900490600052602060002090601f016020900481019282601f106200059557805160ff1916838001178555620005c5565b82800160010185558215620005c5579182015b82811115620005c5578251825591602001919060010190620005a8565b50620005d3929150620005d7565b5090565b620005f491905b80821115620005d35760008155600101620005de565b90565b61123380620006076000396000f300606060405236156101d55763ffffffff7c010000000000000000000000000000000000000000000000000000000060003504166301089b92811461028357806306fdde03146102b2578063095ea7b31461033c5780631067f3611461037257806318160ddd146103975780631d1ada90146103aa57806323b872dd146103ce5780632c4e722e146103f6578063313ce5671461040957806334fcf4371461041c5780633f4ba83a1461043257806342966c681461044557806343234d281461045b578063518ab2a81461046e578063521eb2731461048157806359927044146104945780635c975abb146104a757806366188463146104ba57806370a08231146104dc57806379162aeb146104fb5780637a543a941461050e578063831345bc146105215780638456cb5914610534578063847927ed146105475780638da5cb5b1461055a57806395d89b411461056d578063a9059cbb14610580578063b0dfd775146105a2578063b793233b146105b5578063bf36dd16146105c8578063c138195c146105db578063c58684ab146105ee578063c5c4744c14610601578063d73dd62314610614578063d7eae6db14610636578063dd62ed3e14610649578063f2fde38b1461066e578063fb75b2c71461068d575b60155460009060ff16156101e857600080fd5b600034116101f557600080fd5b6016541580159061020857506016544210155b151561021357600080fd5b601754421115806102275750601354601054105b151561023257600080fd5b6014546010541061024257600080fd5b60125461025690349063ffffffff6106a016565b905061026233826106cb565b601054610275903463ffffffff6107a716565b6010556102806107b6565b50005b341561028e57600080fd5b6102966107ec565b604051600160a060020a03909116815260200160405180910390f35b34156102bd57600080fd5b6102c56107fb565b60405160208082528190810183818151815260200191508051906020019080838360005b838110156103015780820151838201526020016102e9565b50505050905090810190601f16801561032e5780820380516001836020036101000a031916815260200191505b509250505060405180910390f35b341561034757600080fd5b61035e600160a060020a0360043516602435610899565b604051901515815260200160405180910390f35b341561037d57600080fd5b61038561091c565b60405190815260200160405180910390f35b34156103a257600080fd5b610385610922565b34156103b557600080fd5b6103cc600160a060020a0360043516602435610928565b005b34156103d957600080fd5b61035e600160a060020a0360043581169060243516604435610961565b341561040157600080fd5b610385610aa4565b341561041457600080fd5b610385610aaa565b341561042757600080fd5b6103cc600435610ab0565b341561043d57600080fd5b6103cc610ae2565b341561045057600080fd5b6103cc600435610b61565b341561046657600080fd5b610296610c1d565b341561047957600080fd5b610385610c2c565b341561048c57600080fd5b610296610c32565b341561049f57600080fd5b610296610c41565b34156104b257600080fd5b61035e610c50565b34156104c557600080fd5b61035e600160a060020a0360043516602435610c60565b34156104e757600080fd5b610385600160a060020a0360043516610d75565b341561050657600080fd5b61035e610d90565b341561051957600080fd5b61035e610d99565b341561052c57600080fd5b610296610dd1565b341561053f57600080fd5b6103cc610de0565b341561055257600080fd5b610385610e64565b341561056557600080fd5b610296610e6a565b341561057857600080fd5b6102c5610e79565b341561058b57600080fd5b61035e600160a060020a0360043516602435610ee4565b34156105ad57600080fd5b610296610fba565b34156105c057600080fd5b610385610fc9565b34156105d357600080fd5b610385610fcf565b34156105e657600080fd5b610385610fd5565b34156105f957600080fd5b6103cc610fdb565b341561060c57600080fd5b610385611005565b341561061f57600080fd5b61035e600160a060020a036004351660243561100b565b341561064157600080fd5b6103cc6110c7565b341561065457600080fd5b610385600160a060020a03600435811690602435166110ee565b341561067957600080fd5b6103cc600160a060020a0360043516611134565b341561069857600080fd5b6102966111cf565b60008282028315806106bc57508284828115156106b957fe5b04145b15156106c457fe5b9392505050565b600160a060020a0382166000908152600160205260408120546106f4908363ffffffff6107a716565b600160a060020a038416600090815260016020526040902055600f54610720908363ffffffff6107a716565b600f81905560115490111561076357600f546011546107449163ffffffff6111de16565b600f54601181905590915061075f908263ffffffff6107a716565b6007555b82600160a060020a031660007fddf252ad1be2c89b69c2b068fc378daa952ba7f163c4a11628f55a4df523b3ef8460405190815260200160405180910390a3505050565b6000828201838110156106c457fe5b600854600160a060020a03163480156108fc0290604051600060405180830381858888f1935050505015156107ea57600080fd5b565b600954600160a060020a031681565b60048054600181600116156101000203166002900480601f0160208091040260200160405190810160405280929190818152602001828054600181600116156101000203166002900480156108915780601f1061086657610100808354040283529160200191610891565b820191906000526020600020905b81548152906001019060200180831161087457829003601f168201915b505050505081565b60025460009060a060020a900460ff16156108b357600080fd5b600160a060020a03338116600081815260036020908152604080832094881680845294909152908190208590557f8c5be1e5ebec7d5bd14f71427d1e84f3dd0314c0f7b2291e5b200ac8c7c3b9259085905190815260200160405180910390a350600192915050565b60115481565b60075481565b60025433600160a060020a0390811691161461094357600080fd5b600754600f541061095357600080fd5b61095d82826106cb565b5050565b600254600090819060a060020a900460ff161561097d57600080fd5b600160a060020a038416151561099257600080fd5b50600160a060020a038085166000818152600360209081526040808320339095168352938152838220549282526001905291909120546109d8908463ffffffff6111de16565b600160a060020a038087166000908152600160205260408082209390935590861681522054610a0d908463ffffffff6107a716565b600160a060020a038516600090815260016020526040902055610a36818463ffffffff6111de16565b600160a060020a03808716600081815260036020908152604080832033861684529091529081902093909355908616917fddf252ad1be2c89b69c2b068fc378daa952ba7f163c4a11628f55a4df523b3ef9086905190815260200160405180910390a3506001949350505050565b60125481565b60065481565b60025433600160a060020a03908116911614610acb57600080fd5b610ad3610d99565b15610add57600080fd5b601255565b60025433600160a060020a03908116911614610afd57600080fd5b60025460a060020a900460ff161515610b1557600080fd5b6002805474ff0000000000000000000000000000000000000000191690557f7805862f689e2f13df9f062ff482ad3ad112aca9e0847911ed832e158c525b3360405160405180910390a1565b60025460009060a060020a900460ff1615610b7b57600080fd5b60008211610b8857600080fd5b5033600160a060020a038116600090815260016020526040902054610bad90836111de565b600160a060020a038216600090815260016020526040902055600754610bd9908363ffffffff6111de16565b600755600160a060020a0381167fcc16f5dbb4873280815c1ee09dbd06736cffcc184412cf7a71a0fdb75d397ca58360405190815260200160405180910390a25050565b600b54600160a060020a031681565b600f5481565b600854600160a060020a031681565b600c54600160a060020a031681565b60025460a060020a900460ff1681565b600254600090819060a060020a900460ff1615610c7c57600080fd5b50600160a060020a0333811660009081526003602090815260408083209387168352929052205480831115610cd857600160a060020a033381166000908152600360209081526040808320938816835292905290812055610d0f565b610ce8818463ffffffff6111de16565b600160a060020a033381166000908152600360209081526040808320938916835292905220555b600160a060020a0333811660008181526003602090815260408083209489168084529490915290819020547f8c5be1e5ebec7d5bd14f71427d1e84f3dd0314c0f7b2291e5b200ac8c7c3b925915190815260200160405180910390a35060019392505050565b600160a060020a031660009081526001602052604090205490565b60155460ff1681565b600060135460105410158015610db0575060175415155b8015610dbd575060175442115b80610dcc575060145460105410155b905090565b600a54600160a060020a031681565b60025433600160a060020a03908116911614610dfb57600080fd5b60025460a060020a900460ff1615610e1257600080fd5b6002805474ff0000000000000000000000000000000000000000191660a060020a1790557f6985a02210a168e66602d3235cb6db0e70f92b3ba4d376a33c0f3d9434bff62560405160405180910390a1565b60145481565b600254600160a060020a031681565b60058054600181600116156101000203166002900480601f0160208091040260200160405190810160405280929190818152602001828054600181600116156101000203166002900480156108915780601f1061086657610100808354040283529160200191610891565b6000600160a060020a0383161515610efb57600080fd5b600160a060020a033316600090815260016020526040902054610f24908363ffffffff6111de16565b600160a060020a033381166000908152600160205260408082209390935590851681522054610f59908363ffffffff6107a716565b600160a060020a0380851660008181526001602052604090819020939093559133909116907fddf252ad1be2c89b69c2b068fc378daa952ba7f163c4a11628f55a4df523b3ef9085905190815260200160405180910390a350600192915050565b600e54600160a060020a031681565b60175481565b60165481565b60135481565b60025433600160a060020a03908116911614610ff657600080fd5b6015805460ff19166001179055565b60105481565b60025460009060a060020a900460ff161561102557600080fd5b600160a060020a0333811660009081526003602090815260408083209387168352929052205461105b908363ffffffff6107a716565b600160a060020a0333811660008181526003602090815260408083209489168084529490915290819020849055919290917f8c5be1e5ebec7d5bd14f71427d1e84f3dd0314c0f7b2291e5b200ac8c7c3b92591905190815260200160405180910390a350600192915050565b60025433600160a060020a039081169116146110e257600080fd5b6015805460ff19169055565b60025460009060a060020a900460ff161561110857600080fd5b50600160a060020a03918216600090815260036020908152604080832093909416825291909152205490565b60025433600160a060020a0390811691161461114f57600080fd5b600160a060020a038116151561116457600080fd5b600254600160a060020a0380831691167f8be0079c531659141344cd1fd0a4f28419497f9722a3daafe3b4186f6b6457e060405160405180910390a36002805473ffffffffffffffffffffffffffffffffffffffff1916600160a060020a0392909216919091179055565b600d54600160a060020a031681565b6000828211156111ea57fe5b50900390565b60008082848115156111fe57fe5b049493505050505600a165627a7a7230582024bd78be689e8386440e2c6f9455463e1e6998426723ea13a4894012f23127af0029",
  "source": "pragma solidity ^0.4.15;\n\nimport './ERC20Basic.sol';\nimport './StandardToken.sol';\n\ncontract JubsICO is StandardToken {\n    using SafeMath for uint256;\n\n    //Information coin\n    string public name = \"Jubs Coin Service\";\n    string public symbol = \"JCS\";\n    uint256 public decimals = 18;\n    uint256 public totalSupply = 300000000 * (10*7) * (10 ** decimals); //300 000 000 JCS\n\n    //Adress informated in white paper\n    address public wallet;\n    address public investorsWallet;                     //3%\n    address public workingCapitalWallet;                //10%\n    address public walletToken;                         //70%    \n    address public teamWallet;                          //10%\n    address public rewardWallet;                        //5%\n    address public advisior;                            //2%        \n\n    //Utils ICO\n    uint256 public tokensSold = 0;                      // total number of tokens sold\n    uint256 public totalRaised = 0;                     // total amount of money raised in wei\n    uint256 public totalTokenToSale = 0;\n    uint256 public rate = 350;                          // JCS/ETH rate\n    uint256 public icoEtherMinCap;                      // in wei\n    uint256 public icoEtherMaxCap;                      // in wei\n    bool public pauseEmergence = false;                 //the owner address can set this to true to halt the crowdsale due to emergency\n\n    //Time Start and Time end\n    uint256 public icoStartTimestamp = 1484179199;      //01/11/2017 @ 11:59pm (UTC)\n    uint256 public icoEndTimestamp = 1512086399;        //11/30/2017 @ 11:59pm (UTC)\n\n// =================================== Events ================================================\n\n    event Burn(address indexed burner, uint256 value);\n\n\n// =================================== Constructor =============================================\n    \n    function JubsICO (\n        address _wallet,\n        address _investorsWallet,\n        address _workingCapitalWallet,\n        address _walletToken,\n        address _teamWallet,\n        address _rewardWallet,\n        address _advisior,\n        uint256 _icoEtherMinCap,\n        uint256 _icoEtherMaxCap)\n        public \n        {\n            require(_wallet != 0x0);\n            require(_investorsWallet != 0x0);\n            require(_workingCapitalWallet != 0x0);\n            require(_walletToken != 0x0);\n            require(_teamWallet != 0x0);\n            require(_rewardWallet != 0x0);\n            require(_advisior != 0x0);            \n            require(_icoEtherMinCap > 0);\n            require(_icoEtherMaxCap > 0);\n            require(_icoEtherMaxCap > _icoEtherMinCap); \n            \n            //set wallet that will receive ether\n            wallet = _wallet;\n\n            //set wallet            \n            investorsWallet = _investorsWallet;                    \n            workingCapitalWallet = _workingCapitalWallet;                \n            walletToken = _walletToken;                         \n            teamWallet = _teamWallet;                         \n            rewardWallet = _rewardWallet;                        \n            advisior = _advisior; \n\n            //Set Min and Max EtherCap\n            icoEtherMinCap = _icoEtherMinCap;\n            icoEtherMaxCap = _icoEtherMaxCap;\n\n            //Distribution Token            \n            balances[_investorsWallet] = totalSupply.mul(3).div(100);           //totalSupply * 3%\n            balances[_workingCapitalWallet] = totalSupply.mul(10).div(100);     //totalSupply * 10%      \n            balances[_walletToken] = totalSupply.mul(70).div(100);              //totalSupply * 70%\n            balances[_teamWallet] = totalSupply.mul(10).div(100);               //totalSupply * 10%\n            balances[_rewardWallet] = totalSupply.mul(5).div(100);              //totalSupply * 5%\n            balances[_advisior] = totalSupply.mul(2).div(100);      \n\n            //set pause\n            pause();\n\n            //set token to sale\n            totalTokenToSale = balances[_walletToken];           \n    }\n\n // ======================================== Modifier ==================================================\n\n    modifier acceptsFunds() {        \n        require(icoStartTimestamp != 0 && now >= icoStartTimestamp);          \n        require(now <= icoEndTimestamp || totalRaised < icoEtherMinCap);        \n        require(totalRaised < icoEtherMaxCap);\n        _;\n    }    \n\n    modifier nonZeroBuy() {\n        require(msg.value > 0);\n        _;\n\n    }\n\n    modifier testPauseEmergence {\n        require(!pauseEmergence);\n        _;\n    }\n\n\n//========================================== Functions ===========================================================================\n\n     /// fallback function to buy tokens\n    function () testPauseEmergence nonZeroBuy acceptsFunds payable public {  \n        uint256 amount = msg.value.mul(rate);\n\n        assignTokens(msg.sender, amount);\n        totalRaised = totalRaised.add(msg.value);\n\n        forwardFundsToWallet();\n    } \n\n    function forwardFundsToWallet() internal {\n        wallet.transfer(msg.value); // immediately send Ether to wallet address, propagates exception if execution fails\n    }\n\n    function assignTokens(address recipient, uint256 amount) internal {        \n        balances[recipient] = balances[recipient].add(amount);\n        tokensSold = tokensSold.add(amount);        \n       \n        //test token sold, if it was sold more than the total available right total token total\n        if (tokensSold > totalTokenToSale) {\n            uint256 diferenceTotalSale = totalTokenToSale.sub(tokensSold);\n            totalTokenToSale = tokensSold;\n            totalSupply = tokensSold.add(diferenceTotalSale);\n        }\n        \n        Transfer(0x0, recipient, amount);\n    }\n\n    function manuallyAssignTokens(address recipient, uint256 amount) public onlyOwner {\n        require(tokensSold < totalSupply);\n        assignTokens(recipient, amount);\n    }\n\n    function setRate(uint256 _rate) public onlyOwner {\n        require(!isIcoFinished());\n        rate = _rate;        \n    }\n\n    function setPauseEmergence() public onlyOwner {        \n        pauseEmergence = true;\n    }\n\n    function setUnPauseEmergence() public onlyOwner {        \n        pauseEmergence = false;\n    }\n\n    function isIcoFinished() public constant returns (bool icoFinished) {\n        return (totalRaised >= icoEtherMinCap && icoEndTimestamp != 0 && now > icoEndTimestamp) || (totalRaised >= icoEtherMaxCap);\n    }\n\n    function burn(uint256 _value) public whenNotPaused {\n        require(_value > 0);\n\n        address burner = msg.sender;\n        balances[burner] = balances[burner].sub(_value);\n        totalSupply = totalSupply.sub(_value);\n        Burn(burner, _value);\n    }   \n    \n}",
  "sourcePath": "/home/daniz/Documentos/JubsICO/JubsICO/contracts/JubsICO.sol",
  "schemaVersion": "1.0.0",
  "updatedAt": "2017-10-24T00:30:13.473Z"
}